{"contracts/CustomTokenAuthority.sol":{"CustomTokenAuthority":{"abi":[{"inputs":[{"internalType":"address","name":"_initialOwner","type":"address"},{"internalType":"address","name":"_opinionMaker","type":"address"}],"stateMutability":"nonpayable","type":"constructor"},{"inputs":[{"internalType":"address","name":"owner","type":"address"}],"name":"OwnableInvalidOwner","type":"error"},{"inputs":[{"internalType":"address","name":"account","type":"address"}],"name":"OwnableUnauthorizedAccount","type":"error"},{"inputs":[],"name":"expmod_Error","type":"error"},{"inputs":[],"name":"k256Decompress_Invalid_Length_Error","type":"error"},{"inputs":[],"name":"k256DeriveY_Invalid_Prefix_Error","type":"error"},{"anonymous":false,"inputs":[{"indexed":true,"internalType":"address","name":"previousOwner","type":"address"},{"indexed":true,"internalType":"address","name":"newOwner","type":"address"}],"name":"OwnershipTransferred","type":"event"},{"inputs":[],"name":"generateKey","outputs":[],"stateMutability":"nonpayable","type":"function"},{"inputs":[{"internalType":"uint256","name":"kernelId","type":"uint256"}],"name":"getOpinion","outputs":[{"internalType":"bool","name":"","type":"bool"},{"internalType":"bool","name":"","type":"bool"},{"internalType":"bytes","name":"","type":"bytes"}],"stateMutability":"view","type":"function"},{"inputs":[{"internalType":"string","name":"password","type":"string"}],"name":"getSigningKeypairPrivateKey","outputs":[{"internalType":"bytes","name":"","type":"bytes"}],"stateMutability":"view","type":"function"},{"inputs":[],"name":"getSigningKeypairPublicKey","outputs":[{"internalType":"bytes","name":"","type":"bytes"},{"internalType":"address","name":"","type":"address"}],"stateMutability":"view","type":"function"},{"inputs":[{"internalType":"uint256","name":"kernelId","type":"uint256"}],"name":"isKernelAllowed","outputs":[{"internalType":"bool","name":"","type":"bool"}],"stateMutability":"view","type":"function"},{"inputs":[],"name":"owner","outputs":[{"internalType":"address","name":"","type":"address"}],"stateMutability":"view","type":"function"},{"inputs":[],"name":"renounceOwnership","outputs":[],"stateMutability":"nonpayable","type":"function"},{"inputs":[{"internalType":"uint256","name":"kernelId","type":"uint256"},{"internalType":"bool","name":"isAllowed","type":"bool"}],"name":"setKernel","outputs":[],"stateMutability":"nonpayable","type":"function"},{"inputs":[{"internalType":"address","name":"newOpinionMaker","type":"address"}],"name":"setOpinionMaker","outputs":[],"stateMutability":"nonpayable","type":"function"},{"inputs":[{"internalType":"bytes32","name":"runtimeDigest","type":"bytes32"},{"internalType":"bool","name":"isAllowed","type":"bool"}],"name":"setRuntimeDigest","outputs":[],"stateMutability":"nonpayable","type":"function"},{"inputs":[{"internalType":"bytes","name":"pubKey","type":"bytes"},{"internalType":"bytes","name":"privKey","type":"bytes"}],"name":"setSigningKeypair","outputs":[],"stateMutability":"nonpayable","type":"function"},{"inputs":[{"internalType":"string","name":"password","type":"string"}],"name":"setSigningKeypairRetrievalPassword","outputs":[],"stateMutability":"nonpayable","type":"function"},{"inputs":[{"internalType":"address","name":"kernelNodePubKey","type":"address"},{"internalType":"bool","name":"isAllowed","type":"bool"}],"name":"setWhitelist","outputs":[],"stateMutability":"nonpayable","type":"function"},{"inputs":[{"internalType":"address","name":"senderAddress","type":"address"},{"internalType":"bytes","name":"","type":"bytes"},{"internalType":"bytes","name":"functionParams","type":"bytes"},{"internalType":"bytes","name":"kernelParamObjects","type":"bytes"},{"internalType":"bytes","name":"kernelResponses","type":"bytes"}],"name":"sign","outputs":[{"internalType":"bytes","name":"","type":"bytes"},{"internalType":"bytes32","name":"","type":"bytes32"},{"internalType":"bytes","name":"","type":"bytes"},{"internalType":"bytes32","name":"","type":"bytes32"}],"stateMutability":"view","type":"function"},{"inputs":[{"internalType":"address","name":"newOwner","type":"address"}],"name":"transferOwnership","outputs":[],"stateMutability":"nonpayable","type":"function"}],"evm":{"bytecode":{"linkReferences":{},"object":"6080346200013757601f62001aff38819003918201601f19168301916001600160401b038311848410176200013c57808492604094855283398101031262000137576200005a6020620000528362000152565b920162000152565b6001600160a01b03918216919082156200011e57600080546001600160a01b0319808216861783559491908416907f8be0079c531659141344cd1fd0a4f28419497f9722a3daafe3b4186f6b6457e09080a316908115620000cd5760065416176006556040516119979081620001688239f35b60405162461bcd60e51b8152602060048201526024808201527f4f70696e696f6e206d616b657220616464726573732063616e6e6f74206265206044820152637a65726f60e01b6064820152608490fd5b604051631e4fbdf760e01b815260006004820152602490fd5b600080fd5b634e487b7160e01b600052604160045260246000fd5b51906001600160a01b0382168203620001375756fe6080604052600436101561001257600080fd5b60003560e01c806309eef4a514610107578063270e7c2f1461010257806348d08eeb146100fd5780634cf0d40a146100f85780634f8dd40a146100f357806353d6fd59146100ee578063715018a6146100e95780637355f88b146100e45780637998efb8146100df5780638da5cb5b146100da578063922dd7d9146100d557806395f7b6ab146100d0578063aa775b4a146100cb578063e498de5f146100c65763f2fde38b146100c157600080fd5b610b07565b6109b0565b6108f2565b61084f565b61073d565b610714565b6106d2565b61053a565b6104dc565b610485565b61036a565b6102fe565b6102cd565b610282565b6101d0565b600435906001600160a01b038216820361012257565b600080fd5b9181601f84011215610122578235916001600160401b038311610122576020838186019501011161012257565b60005b8381106101675750506000910152565b8181015183820152602001610157565b9060209161019081518092818552858086019101610154565b601f01601f1916010190565b949392916060926101b86101cb93608089526080890190610177565b9160208801528682036040880152610177565b930152565b346101225760a0366003190112610122576101e961010c565b6001600160401b0360243581811161012257610209903690600401610127565b505060443581811161012257610223903690600401610127565b926064358381116101225761023c903690600401610127565b90608435948511610122576102749561025c610264963690600401610127565b959094610d94565b906040949294519485948561019c565b0390f35b8015150361012257565b34610122576040366003190112610122576102cb6024356102a281610278565b6102aa611849565b600435600052600960205260406000209060ff801983541691151516179055565b005b34610122576020366003190112610122576004356000526009602052602060ff604060002054166040519015158152f35b34610122576040366003190112610122576102cb60243561031e81610278565b610326611849565b600435600052600860205260406000209060ff801983541691151516179055565b610367939260609215158252151560208201528160408201520190610177565b90565b346101225760208060031936011261012257600435806000526009825260ff6040600020541615610448576006546040516327c6ea0560e11b84820190815260248083019490945292815260009283926001600160a01b0316916103cd81610bf2565b51915afa906103da610f08565b91156104045781816103f59261027494518301019101610f7a565b60409391935193849384610347565b6064906040519062461bcd60e51b82526004820152601860248201527f4f70696e696f6e2072657472696576616c206661696c656400000000000000006044820152fd5b60405162461bcd60e51b815260048101839052601560248201527412d95c9b995b081a5cc81b9bdd08185b1b1bddd959605a1b6044820152606490fd5b34610122576040366003190112610122576102cb6104a161010c565b602435906104ae82610278565b6104b6611849565b60018060a01b0316600052600760205260406000209060ff801983541691151516179055565b3461012257600080600319360112610537576104f6611849565b80546001600160a01b03198116825581906001600160a01b03167f8be0079c531659141344cd1fd0a4f28419497f9722a3daafe3b4186f6b6457e08280a380f35b80fd5b34610122576040366003190112610122576001600160401b036004358181116101225761056b903690600401610127565b9060243590838211610122576105aa61058b6105b3933690600401610127565b919092610596611849565b604051956105a387610bd7565b3691610fbd565b84523691610fbd565b90602090602081019283525190815193841161069f576001916105df856105da8554610c7d565b610ff4565b602091601f861160011461062957509380610615926102cb9660009261061e575b50508160011b916000199060031b1c19161790565b90555b5161119c565b015190503880610600565b60016000529190601f198616600080516020611942833981519152936000905b82821061068857505091849391876102cb98941061066f575b505050811b019055610618565b015160001960f88460031b161c19169055388080610662565b808786978294978701518155019601940190610649565b610bc1565b602060031982011261012257600435906001600160401b038211610122576106ce91600401610127565b9091565b34610122576106e0366106a4565b6106e8611849565b61070c60206040518381948383019687378101600083820152038084520182610c43565b519020600555005b34610122576000366003190112610122576000546040516001600160a01b039091168152602090f35b346101225760008060031936011261053757610757611849565b61076e60405161076681610c0d565b8281526117ca565b8180604051926020936107aa8161079c8782019461078c8660049052565b6040808401526060830190610177565b03601f198101835282610c43565b51906005600160981b015afa6107be610f08565b901561080a57906107da82828061080795518301019101611875565b90916107f46107e7610d34565b8481528383820152611400565b6107fc610d34565b9283528201526114e6565b80f35b60405162461bcd60e51b815260048101839052601b60248201527f67656e207369676e696e67206b6579706169723a206661696c656400000000006044820152606490fd5b346101225760203660031901126101225761086861010c565b610870611849565b6001600160a01b0316801561089c576bffffffffffffffffffffffff60a01b6006541617600655600080f35b60405162461bcd60e51b815260206004820152601d60248201527f496e76616c6964206f70696e696f6e206d616b657220616464726573730000006044820152606490fd5b906020610367928181520190610177565b3461012257610900366106a4565b90610909611849565b6005549161093160206040518381948383019687378101600083820152038084520182610c43565b51902003610950576102746109446115df565b604051918291826108e1565b60405162461bcd60e51b815260206004820152601060248201526f125b9d985b1a59081c185cdcdddbdc9960821b6044820152606490fd5b906109a0602091949394604084526040840190610177565b6001600160a01b03909416910152565b3461012257600080600319360112610537576109ca611691565b906021825103610af557602182015191805115610ae1576020015160f81c90600282141580610ad6575b610ac457806401000003d019604051602081019160208352602060408301526020606083015280600781808a80098a0908608083015263400000f4600160fe1b0360a083015260c0808301919091528152610a4e81610c28565b519060055afa91610a5d610f08565b9215610ab257610a82610a7c610a75610a8b95610d71565b93846118fb565b60011690565b610aa2576118b8565b610a93611691565b61027460405192839283610988565b90610aac9061190d565b906118b8565b60405163102875ed60e01b8152600490fd5b60405163ab4be04160e01b8152600490fd5b5060038214156109f4565b634e487b7160e01b82526032600452602482fd5b604051636446a2c560e11b8152600490fd5b3461012257602036600319011261012257610b2061010c565b610b28611849565b6001600160a01b039081168015610b7657600080546001600160a01b03198116831782559092167f8be0079c531659141344cd1fd0a4f28419497f9722a3daafe3b4186f6b6457e08380a380f35b604051631e4fbdf760e01b815260006004820152602490fd5b908060209392818452848401376000828201840152601f01601f1916010190565b916020610367938181520191610b8f565b634e487b7160e01b600052604160045260246000fd5b604081019081106001600160401b0382111761069f57604052565b606081019081106001600160401b0382111761069f57604052565b602081019081106001600160401b0382111761069f57604052565b60e081019081106001600160401b0382111761069f57604052565b90601f801991011681019081106001600160401b0382111761069f57604052565b916020916109a091959495604085526040850191610b8f565b90600182811c92168015610cad575b6020831014610c9757565b634e487b7160e01b600052602260045260246000fd5b91607f1691610c8c565b60025460009291610cc782610c7d565b91600190818116908115610d215750600114610ce257505050565b90919293506002600052600080516020611922833981519152906000915b848310610d0e575050500190565b8181602092548587015201920191610d00565b60ff191683525050811515909102019150565b60405190610d4182610bd7565b565b6001600160401b03811161069f57601f01601f191660200190565b60405190610d6b82610c0d565b60008252565b602081519101519060208110610d85575090565b6000199060200360031b1b1690565b610e56610ef594989593969297988260409586519a8b610dba60209c8d83019384610bb0565b039b610dce601f199d8e8101835282610c43565b519020928115610efc57610e3491610dfe8d8d610df28c5194859283019687610bb0565b03908101835282610c43565b5190205b87518b810194855260208501919091526001600160a01b03909216604084015281606084015b038b8101835282610c43565b51902098610e4a85519384928a84019687610c64565b03888101835282610c43565b51902095610e93610ea18351610e7d81610e718a8201610cb7565b038a8101835282610c43565b84518881018b8152610e93908290602001610e28565b610e9b610d5e565b9161171e565b96610eba610eb5610eb0610d5e565b6117ca565b610d71565b96610df288865196610edd88610ed1868201610cb7565b038681018a5289610c43565b51958693840160209093929193604081019481520152565b9293929190565b5050610e346000610e02565b3d15610f33573d90610f1982610d43565b91610f276040519384610c43565b82523d6000602084013e565b606090565b81601f82011215610122578051610f4e81610d43565b92610f5c6040519485610c43565b81845260208284010111610122576103679160208085019101610154565b91606083830312610122578251610f9081610278565b926020810151610f9f81610278565b9260408201516001600160401b038111610122576103679201610f38565b929192610fc982610d43565b91610fd76040519384610c43565b829481845281830111610122578281602093846000960137010152565b90601f8211611001575050565b6001916000906001600052600080516020611942833981519152906020601f850160051c8301941061104e575b601f0160051c01915b8281106110445750505050565b8181558301611037565b909250829061102e565b601f8111611064575050565b6000906002600052600080516020611922833981519152906020601f850160051c830194106110ae575b601f0160051c01915b8281106110a357505050565b818155600101611097565b909250829061108e565b601f81116110c4575050565b60009060036000527fc2575a0e9e593c00f959f8c92f12db2869c3395a3b0502d05e2516446f71f85b906020601f850160051c83019410611120575b601f0160051c01915b82811061111557505050565b818155600101611109565b9092508290611100565b601f8111611136575050565b60009060046000527f8a35acfbc15ff81a39ae7d344fd709f28e8600b4aa8c65c6b64bfe7fe36bd19b906020601f850160051c83019410611192575b601f0160051c01915b82811061118757505050565b81815560010161117b565b9092508290611172565b9081516001600160401b03811161069f576111c1816111bc600254610c7d565b611058565b602080601f83116001146111f8575081906111f3939460009261061e5750508160011b916000199060031b1c19161790565b600255565b90601f19831694611219600260005260008051602061192283398151915290565b926000905b87821061125657505083600195961061123d575b505050811b01600255565b015160001960f88460031b161c19169055388080611232565b8060018596829496860151815501950193019061121e565b9081516001600160401b03811161069f5761128e816111bc600254610c7d565b602080601f83116001146112c0575081906111f3939460009261061e5750508160011b916000199060031b1c19161790565b90601f198316946112e1600260005260008051602061192283398151915290565b926000905b87821061130457505083600195961061123d57505050811b01600255565b806001859682949686015181550195019301906112e6565b9081516001600160401b03811161069f576113418161133c600454610c7d565b61112a565b602080601f831160011461137857508190611373939460009261061e5750508160011b916000199060031b1c19161790565b600455565b90601f198316946113ab60046000527f8a35acfbc15ff81a39ae7d344fd709f28e8600b4aa8c65c6b64bfe7fe36bd19b90565b926000905b8782106113e85750508360019596106113cf575b505050811b01600455565b015160001960f88460031b161c191690553880806113c4565b806001859682949686015181550195019301906113b0565b9081519182516001600160401b03811161069f57600190611425816105da8454610c7d565b602094856001601f84111461146a5750816020949392610d4196976114609360009261061e5750508160011b916000199060031b1c19161790565b90555b015161126e565b60016000529590601f198316600080516020611942833981519152976000905b8282106114cf5750509684939192602096959383610d41999a106114b6575b505050811b019055611463565b015160001960f88460031b161c191690553880806114a9565b838501518a5598860198938401939081019061148a565b80518051906001600160401b03821161069f5761150d82611508600354610c7d565b6110b8565b602090816001601f851114611551575082602093610d4195936115469360009261061e5750508160011b916000199060031b1c19161790565b6003555b015161131c565b60036000529190601f1984167fc2575a0e9e593c00f959f8c92f12db2869c3395a3b0502d05e2516446f71f85b936000905b8282106115c7575050926001928592602096610d419896106115ae575b505050811b0160035561154a565b015160001960f88460031b161c191690553880806115a0565b80600186978294978701518155019601940190611583565b60405190600082600254916115f383610c7d565b8083529260209060019081811690811561166d575060011461161e575b5050610d4192500383610c43565b9150926002600052600080516020611922833981519152936000925b8284106116555750610d419450505081016020013880611610565b8554888501830152948501948794509281019261163a565b91505060209250610d4194915060ff191682840152151560051b8201013880611610565b604051906000826001916001546116a781610c7d565b808452936020916001811690811561166d57506001146116cf575050610d4192500383610c43565b9150926001600052600080516020611942833981519152936000925b8284106117065750610d419450505081016020013880611610565b855488850183015294850194879450928101926116eb565b610df261177960009493859460405193849161176961175660208501986117458a60049052565b6080604087015260a0860190610177565b601f199586868303016060870152610177565b9084848303016080850152610177565b51906006600160981b015afa61178d610f08565b90156117965790565b60405162461bcd60e51b815260206004820152600c60248201526b1cda59db8e8819985a5b195960a21b6044820152606490fd5b600080916040516117f18161079c6020820194602086526040808401526060830190610177565b51906001600160981b015afa611805610f08565b901561180e5790565b60405162461bcd60e51b81526020600482015260136024820152721c985b991bdb509e5d195cce8819985a5b1959606a1b6044820152606490fd5b6000546001600160a01b0316330361185d57565b60405163118cdaa760e01b8152336004820152602490fd5b919091604081840312610122578051926001600160401b039384811161012257816118a1918401610f38565b936020830151908111610122576103679201610f38565b60405191602083019182526040830152604082526118d582610bf2565b905190206001600160a01b031690565b634e487b7160e01b600052601160045260246000fd5b9190820180921161190857565b6118e5565b6401000003d019908103919082116119085756fe405787fa12a823e0f2b7631cc41b3ba8828b3321ca811111fa75cd3aa3bb5aceb10e2d527612073b26eecdfd717e6a320cf44b4afac2b0732d9fcbe2b7fa0cf6a2646970667358221220840ea7a3493ef1e729a7600b0f3f12cc80707bf5e06be7e1b1aa975265aa1d8264736f6c63430008180033","opcodes":"PUSH1 0x80 CALLVALUE PUSH3 0x137 JUMPI PUSH1 0x1F PUSH3 0x1AFF CODESIZE DUP2 SWAP1 SUB SWAP2 DUP3 ADD PUSH1 0x1F NOT AND DUP4 ADD SWAP2 PUSH1 0x1 PUSH1 0x1 PUSH1 0x40 SHL SUB DUP4 GT DUP5 DUP5 LT OR PUSH3 0x13C JUMPI DUP1 DUP5 SWAP3 PUSH1 0x40 SWAP5 DUP6 MSTORE DUP4 CODECOPY DUP2 ADD SUB SLT PUSH3 0x137 JUMPI PUSH3 0x5A PUSH1 0x20 PUSH3 0x52 DUP4 PUSH3 0x152 JUMP JUMPDEST SWAP3 ADD PUSH3 0x152 JUMP JUMPDEST PUSH1 0x1 PUSH1 0x1 PUSH1 0xA0 SHL SUB SWAP2 DUP3 AND SWAP2 SWAP1 DUP3 ISZERO PUSH3 0x11E JUMPI PUSH1 0x0 DUP1 SLOAD PUSH1 0x1 PUSH1 0x1 PUSH1 0xA0 SHL SUB NOT DUP1 DUP3 AND DUP7 OR DUP4 SSTORE SWAP5 SWAP2 SWAP1 DUP5 AND SWAP1 PUSH32 0x8BE0079C531659141344CD1FD0A4F28419497F9722A3DAAFE3B4186F6B6457E0 SWAP1 DUP1 LOG3 AND SWAP1 DUP2 ISZERO PUSH3 0xCD JUMPI PUSH1 0x6 SLOAD AND OR PUSH1 0x6 SSTORE PUSH1 0x40 MLOAD PUSH2 0x1997 SWAP1 DUP2 PUSH3 0x168 DUP3 CODECOPY RETURN JUMPDEST PUSH1 0x40 MLOAD PUSH3 0x461BCD PUSH1 0xE5 SHL DUP2 MSTORE PUSH1 0x20 PUSH1 0x4 DUP3 ADD MSTORE PUSH1 0x24 DUP1 DUP3 ADD MSTORE PUSH32 0x4F70696E696F6E206D616B657220616464726573732063616E6E6F7420626520 PUSH1 0x44 DUP3 ADD MSTORE PUSH4 0x7A65726F PUSH1 0xE0 SHL PUSH1 0x64 DUP3 ADD MSTORE PUSH1 0x84 SWAP1 REVERT JUMPDEST PUSH1 0x40 MLOAD PUSH4 0x1E4FBDF7 PUSH1 0xE0 SHL DUP2 MSTORE PUSH1 0x0 PUSH1 0x4 DUP3 ADD MSTORE PUSH1 0x24 SWAP1 REVERT JUMPDEST PUSH1 0x0 DUP1 REVERT JUMPDEST PUSH4 0x4E487B71 PUSH1 0xE0 SHL PUSH1 0x0 MSTORE PUSH1 0x41 PUSH1 0x4 MSTORE PUSH1 0x24 PUSH1 0x0 REVERT JUMPDEST MLOAD SWAP1 PUSH1 0x1 PUSH1 0x1 PUSH1 0xA0 SHL SUB DUP3 AND DUP3 SUB PUSH3 0x137 JUMPI JUMP INVALID PUSH1 0x80 PUSH1 0x40 MSTORE PUSH1 0x4 CALLDATASIZE LT ISZERO PUSH2 0x12 JUMPI PUSH1 0x0 DUP1 REVERT JUMPDEST PUSH1 0x0 CALLDATALOAD PUSH1 0xE0 SHR DUP1 PUSH4 0x9EEF4A5 EQ PUSH2 0x107 JUMPI DUP1 PUSH4 0x270E7C2F EQ PUSH2 0x102 JUMPI DUP1 PUSH4 0x48D08EEB EQ PUSH2 0xFD JUMPI DUP1 PUSH4 0x4CF0D40A EQ PUSH2 0xF8 JUMPI DUP1 PUSH4 0x4F8DD40A EQ PUSH2 0xF3 JUMPI DUP1 PUSH4 0x53D6FD59 EQ PUSH2 0xEE JUMPI DUP1 PUSH4 0x715018A6 EQ PUSH2 0xE9 JUMPI DUP1 PUSH4 0x7355F88B EQ PUSH2 0xE4 JUMPI DUP1 PUSH4 0x7998EFB8 EQ PUSH2 0xDF JUMPI DUP1 PUSH4 0x8DA5CB5B EQ PUSH2 0xDA JUMPI DUP1 PUSH4 0x922DD7D9 EQ PUSH2 0xD5 JUMPI DUP1 PUSH4 0x95F7B6AB EQ PUSH2 0xD0 JUMPI DUP1 PUSH4 0xAA775B4A EQ PUSH2 0xCB JUMPI DUP1 PUSH4 0xE498DE5F EQ PUSH2 0xC6 JUMPI PUSH4 0xF2FDE38B EQ PUSH2 0xC1 JUMPI PUSH1 0x0 DUP1 REVERT JUMPDEST PUSH2 0xB07 JUMP JUMPDEST PUSH2 0x9B0 JUMP JUMPDEST PUSH2 0x8F2 JUMP JUMPDEST PUSH2 0x84F JUMP JUMPDEST PUSH2 0x73D JUMP JUMPDEST PUSH2 0x714 JUMP JUMPDEST PUSH2 0x6D2 JUMP JUMPDEST PUSH2 0x53A JUMP JUMPDEST PUSH2 0x4DC JUMP JUMPDEST PUSH2 0x485 JUMP JUMPDEST PUSH2 0x36A JUMP JUMPDEST PUSH2 0x2FE JUMP JUMPDEST PUSH2 0x2CD JUMP JUMPDEST PUSH2 0x282 JUMP JUMPDEST PUSH2 0x1D0 JUMP JUMPDEST PUSH1 0x4 CALLDATALOAD SWAP1 PUSH1 0x1 PUSH1 0x1 PUSH1 0xA0 SHL SUB DUP3 AND DUP3 SUB PUSH2 0x122 JUMPI JUMP JUMPDEST PUSH1 0x0 DUP1 REVERT JUMPDEST SWAP2 DUP2 PUSH1 0x1F DUP5 ADD SLT ISZERO PUSH2 0x122 JUMPI DUP3 CALLDATALOAD SWAP2 PUSH1 0x1 PUSH1 0x1 PUSH1 0x40 SHL SUB DUP4 GT PUSH2 0x122 JUMPI PUSH1 0x20 DUP4 DUP2 DUP7 ADD SWAP6 ADD ADD GT PUSH2 0x122 JUMPI JUMP JUMPDEST PUSH1 0x0 JUMPDEST DUP4 DUP2 LT PUSH2 0x167 JUMPI POP POP PUSH1 0x0 SWAP2 ADD MSTORE JUMP JUMPDEST DUP2 DUP2 ADD MLOAD DUP4 DUP3 ADD MSTORE PUSH1 0x20 ADD PUSH2 0x157 JUMP JUMPDEST SWAP1 PUSH1 0x20 SWAP2 PUSH2 0x190 DUP2 MLOAD DUP1 SWAP3 DUP2 DUP6 MSTORE DUP6 DUP1 DUP7 ADD SWAP2 ADD PUSH2 0x154 JUMP JUMPDEST PUSH1 0x1F ADD PUSH1 0x1F NOT AND ADD ADD SWAP1 JUMP JUMPDEST SWAP5 SWAP4 SWAP3 SWAP2 PUSH1 0x60 SWAP3 PUSH2 0x1B8 PUSH2 0x1CB SWAP4 PUSH1 0x80 DUP10 MSTORE PUSH1 0x80 DUP10 ADD SWAP1 PUSH2 0x177 JUMP JUMPDEST SWAP2 PUSH1 0x20 DUP9 ADD MSTORE DUP7 DUP3 SUB PUSH1 0x40 DUP9 ADD MSTORE PUSH2 0x177 JUMP JUMPDEST SWAP4 ADD MSTORE JUMP JUMPDEST CALLVALUE PUSH2 0x122 JUMPI PUSH1 0xA0 CALLDATASIZE PUSH1 0x3 NOT ADD SLT PUSH2 0x122 JUMPI PUSH2 0x1E9 PUSH2 0x10C JUMP JUMPDEST PUSH1 0x1 PUSH1 0x1 PUSH1 0x40 SHL SUB PUSH1 0x24 CALLDATALOAD DUP2 DUP2 GT PUSH2 0x122 JUMPI PUSH2 0x209 SWAP1 CALLDATASIZE SWAP1 PUSH1 0x4 ADD PUSH2 0x127 JUMP JUMPDEST POP POP PUSH1 0x44 CALLDATALOAD DUP2 DUP2 GT PUSH2 0x122 JUMPI PUSH2 0x223 SWAP1 CALLDATASIZE SWAP1 PUSH1 0x4 ADD PUSH2 0x127 JUMP JUMPDEST SWAP3 PUSH1 0x64 CALLDATALOAD DUP4 DUP2 GT PUSH2 0x122 JUMPI PUSH2 0x23C SWAP1 CALLDATASIZE SWAP1 PUSH1 0x4 ADD PUSH2 0x127 JUMP JUMPDEST SWAP1 PUSH1 0x84 CALLDATALOAD SWAP5 DUP6 GT PUSH2 0x122 JUMPI PUSH2 0x274 SWAP6 PUSH2 0x25C PUSH2 0x264 SWAP7 CALLDATASIZE SWAP1 PUSH1 0x4 ADD PUSH2 0x127 JUMP JUMPDEST SWAP6 SWAP1 SWAP5 PUSH2 0xD94 JUMP JUMPDEST SWAP1 PUSH1 0x40 SWAP5 SWAP3 SWAP5 MLOAD SWAP5 DUP6 SWAP5 DUP6 PUSH2 0x19C JUMP JUMPDEST SUB SWAP1 RETURN JUMPDEST DUP1 ISZERO ISZERO SUB PUSH2 0x122 JUMPI JUMP JUMPDEST CALLVALUE PUSH2 0x122 JUMPI PUSH1 0x40 CALLDATASIZE PUSH1 0x3 NOT ADD SLT PUSH2 0x122 JUMPI PUSH2 0x2CB PUSH1 0x24 CALLDATALOAD PUSH2 0x2A2 DUP2 PUSH2 0x278 JUMP JUMPDEST PUSH2 0x2AA PUSH2 0x1849 JUMP JUMPDEST PUSH1 0x4 CALLDATALOAD PUSH1 0x0 MSTORE PUSH1 0x9 PUSH1 0x20 MSTORE PUSH1 0x40 PUSH1 0x0 KECCAK256 SWAP1 PUSH1 0xFF DUP1 NOT DUP4 SLOAD AND SWAP2 ISZERO ISZERO AND OR SWAP1 SSTORE JUMP JUMPDEST STOP JUMPDEST CALLVALUE PUSH2 0x122 JUMPI PUSH1 0x20 CALLDATASIZE PUSH1 0x3 NOT ADD SLT PUSH2 0x122 JUMPI PUSH1 0x4 CALLDATALOAD PUSH1 0x0 MSTORE PUSH1 0x9 PUSH1 0x20 MSTORE PUSH1 0x20 PUSH1 0xFF PUSH1 0x40 PUSH1 0x0 KECCAK256 SLOAD AND PUSH1 0x40 MLOAD SWAP1 ISZERO ISZERO DUP2 MSTORE RETURN JUMPDEST CALLVALUE PUSH2 0x122 JUMPI PUSH1 0x40 CALLDATASIZE PUSH1 0x3 NOT ADD SLT PUSH2 0x122 JUMPI PUSH2 0x2CB PUSH1 0x24 CALLDATALOAD PUSH2 0x31E DUP2 PUSH2 0x278 JUMP JUMPDEST PUSH2 0x326 PUSH2 0x1849 JUMP JUMPDEST PUSH1 0x4 CALLDATALOAD PUSH1 0x0 MSTORE PUSH1 0x8 PUSH1 0x20 MSTORE PUSH1 0x40 PUSH1 0x0 KECCAK256 SWAP1 PUSH1 0xFF DUP1 NOT DUP4 SLOAD AND SWAP2 ISZERO ISZERO AND OR SWAP1 SSTORE JUMP JUMPDEST PUSH2 0x367 SWAP4 SWAP3 PUSH1 0x60 SWAP3 ISZERO ISZERO DUP3 MSTORE ISZERO ISZERO PUSH1 0x20 DUP3 ADD MSTORE DUP2 PUSH1 0x40 DUP3 ADD MSTORE ADD SWAP1 PUSH2 0x177 JUMP JUMPDEST SWAP1 JUMP JUMPDEST CALLVALUE PUSH2 0x122 JUMPI PUSH1 0x20 DUP1 PUSH1 0x3 NOT CALLDATASIZE ADD SLT PUSH2 0x122 JUMPI PUSH1 0x4 CALLDATALOAD DUP1 PUSH1 0x0 MSTORE PUSH1 0x9 DUP3 MSTORE PUSH1 0xFF PUSH1 0x40 PUSH1 0x0 KECCAK256 SLOAD AND ISZERO PUSH2 0x448 JUMPI PUSH1 0x6 SLOAD PUSH1 0x40 MLOAD PUSH4 0x27C6EA05 PUSH1 0xE1 SHL DUP5 DUP3 ADD SWAP1 DUP2 MSTORE PUSH1 0x24 DUP1 DUP4 ADD SWAP5 SWAP1 SWAP5 MSTORE SWAP3 DUP2 MSTORE PUSH1 0x0 SWAP3 DUP4 SWAP3 PUSH1 0x1 PUSH1 0x1 PUSH1 0xA0 SHL SUB AND SWAP2 PUSH2 0x3CD DUP2 PUSH2 0xBF2 JUMP JUMPDEST MLOAD SWAP2 GAS STATICCALL SWAP1 PUSH2 0x3DA PUSH2 0xF08 JUMP JUMPDEST SWAP2 ISZERO PUSH2 0x404 JUMPI DUP2 DUP2 PUSH2 0x3F5 SWAP3 PUSH2 0x274 SWAP5 MLOAD DUP4 ADD ADD SWAP2 ADD PUSH2 0xF7A JUMP JUMPDEST PUSH1 0x40 SWAP4 SWAP2 SWAP4 MLOAD SWAP4 DUP5 SWAP4 DUP5 PUSH2 0x347 JUMP JUMPDEST PUSH1 0x64 SWAP1 PUSH1 0x40 MLOAD SWAP1 PUSH3 0x461BCD PUSH1 0xE5 SHL DUP3 MSTORE PUSH1 0x4 DUP3 ADD MSTORE PUSH1 0x18 PUSH1 0x24 DUP3 ADD MSTORE PUSH32 0x4F70696E696F6E2072657472696576616C206661696C65640000000000000000 PUSH1 0x44 DUP3 ADD MSTORE REVERT JUMPDEST PUSH1 0x40 MLOAD PUSH3 0x461BCD PUSH1 0xE5 SHL DUP2 MSTORE PUSH1 0x4 DUP2 ADD DUP4 SWAP1 MSTORE PUSH1 0x15 PUSH1 0x24 DUP3 ADD MSTORE PUSH21 0x12D95C9B995B081A5CC81B9BDD08185B1B1BDDD959 PUSH1 0x5A SHL PUSH1 0x44 DUP3 ADD MSTORE PUSH1 0x64 SWAP1 REVERT JUMPDEST CALLVALUE PUSH2 0x122 JUMPI PUSH1 0x40 CALLDATASIZE PUSH1 0x3 NOT ADD SLT PUSH2 0x122 JUMPI PUSH2 0x2CB PUSH2 0x4A1 PUSH2 0x10C JUMP JUMPDEST PUSH1 0x24 CALLDATALOAD SWAP1 PUSH2 0x4AE DUP3 PUSH2 0x278 JUMP JUMPDEST PUSH2 0x4B6 PUSH2 0x1849 JUMP JUMPDEST PUSH1 0x1 DUP1 PUSH1 0xA0 SHL SUB AND PUSH1 0x0 MSTORE PUSH1 0x7 PUSH1 0x20 MSTORE PUSH1 0x40 PUSH1 0x0 KECCAK256 SWAP1 PUSH1 0xFF DUP1 NOT DUP4 SLOAD AND SWAP2 ISZERO ISZERO AND OR SWAP1 SSTORE JUMP JUMPDEST CALLVALUE PUSH2 0x122 JUMPI PUSH1 0x0 DUP1 PUSH1 0x3 NOT CALLDATASIZE ADD SLT PUSH2 0x537 JUMPI PUSH2 0x4F6 PUSH2 0x1849 JUMP JUMPDEST DUP1 SLOAD PUSH1 0x1 PUSH1 0x1 PUSH1 0xA0 SHL SUB NOT DUP2 AND DUP3 SSTORE DUP2 SWAP1 PUSH1 0x1 PUSH1 0x1 PUSH1 0xA0 SHL SUB AND PUSH32 0x8BE0079C531659141344CD1FD0A4F28419497F9722A3DAAFE3B4186F6B6457E0 DUP3 DUP1 LOG3 DUP1 RETURN JUMPDEST DUP1 REVERT JUMPDEST CALLVALUE PUSH2 0x122 JUMPI PUSH1 0x40 CALLDATASIZE PUSH1 0x3 NOT ADD SLT PUSH2 0x122 JUMPI PUSH1 0x1 PUSH1 0x1 PUSH1 0x40 SHL SUB PUSH1 0x4 CALLDATALOAD DUP2 DUP2 GT PUSH2 0x122 JUMPI PUSH2 0x56B SWAP1 CALLDATASIZE SWAP1 PUSH1 0x4 ADD PUSH2 0x127 JUMP JUMPDEST SWAP1 PUSH1 0x24 CALLDATALOAD SWAP1 DUP4 DUP3 GT PUSH2 0x122 JUMPI PUSH2 0x5AA PUSH2 0x58B PUSH2 0x5B3 SWAP4 CALLDATASIZE SWAP1 PUSH1 0x4 ADD PUSH2 0x127 JUMP JUMPDEST SWAP2 SWAP1 SWAP3 PUSH2 0x596 PUSH2 0x1849 JUMP JUMPDEST PUSH1 0x40 MLOAD SWAP6 PUSH2 0x5A3 DUP8 PUSH2 0xBD7 JUMP JUMPDEST CALLDATASIZE SWAP2 PUSH2 0xFBD JUMP JUMPDEST DUP5 MSTORE CALLDATASIZE SWAP2 PUSH2 0xFBD JUMP JUMPDEST SWAP1 PUSH1 0x20 SWAP1 PUSH1 0x20 DUP2 ADD SWAP3 DUP4 MSTORE MLOAD SWAP1 DUP2 MLOAD SWAP4 DUP5 GT PUSH2 0x69F JUMPI PUSH1 0x1 SWAP2 PUSH2 0x5DF DUP6 PUSH2 0x5DA DUP6 SLOAD PUSH2 0xC7D JUMP JUMPDEST PUSH2 0xFF4 JUMP JUMPDEST PUSH1 0x20 SWAP2 PUSH1 0x1F DUP7 GT PUSH1 0x1 EQ PUSH2 0x629 JUMPI POP SWAP4 DUP1 PUSH2 0x615 SWAP3 PUSH2 0x2CB SWAP7 PUSH1 0x0 SWAP3 PUSH2 0x61E JUMPI JUMPDEST POP POP DUP2 PUSH1 0x1 SHL SWAP2 PUSH1 0x0 NOT SWAP1 PUSH1 0x3 SHL SHR NOT AND OR SWAP1 JUMP JUMPDEST SWAP1 SSTORE JUMPDEST MLOAD PUSH2 0x119C JUMP JUMPDEST ADD MLOAD SWAP1 POP CODESIZE DUP1 PUSH2 0x600 JUMP JUMPDEST PUSH1 0x1 PUSH1 0x0 MSTORE SWAP2 SWAP1 PUSH1 0x1F NOT DUP7 AND PUSH1 0x0 DUP1 MLOAD PUSH1 0x20 PUSH2 0x1942 DUP4 CODECOPY DUP2 MLOAD SWAP2 MSTORE SWAP4 PUSH1 0x0 SWAP1 JUMPDEST DUP3 DUP3 LT PUSH2 0x688 JUMPI POP POP SWAP2 DUP5 SWAP4 SWAP2 DUP8 PUSH2 0x2CB SWAP9 SWAP5 LT PUSH2 0x66F JUMPI JUMPDEST POP POP POP DUP2 SHL ADD SWAP1 SSTORE PUSH2 0x618 JUMP JUMPDEST ADD MLOAD PUSH1 0x0 NOT PUSH1 0xF8 DUP5 PUSH1 0x3 SHL AND SHR NOT AND SWAP1 SSTORE CODESIZE DUP1 DUP1 PUSH2 0x662 JUMP JUMPDEST DUP1 DUP8 DUP7 SWAP8 DUP3 SWAP5 SWAP8 DUP8 ADD MLOAD DUP2 SSTORE ADD SWAP7 ADD SWAP5 ADD SWAP1 PUSH2 0x649 JUMP JUMPDEST PUSH2 0xBC1 JUMP JUMPDEST PUSH1 0x20 PUSH1 0x3 NOT DUP3 ADD SLT PUSH2 0x122 JUMPI PUSH1 0x4 CALLDATALOAD SWAP1 PUSH1 0x1 PUSH1 0x1 PUSH1 0x40 SHL SUB DUP3 GT PUSH2 0x122 JUMPI PUSH2 0x6CE SWAP2 PUSH1 0x4 ADD PUSH2 0x127 JUMP JUMPDEST SWAP1 SWAP2 JUMP JUMPDEST CALLVALUE PUSH2 0x122 JUMPI PUSH2 0x6E0 CALLDATASIZE PUSH2 0x6A4 JUMP JUMPDEST PUSH2 0x6E8 PUSH2 0x1849 JUMP JUMPDEST PUSH2 0x70C PUSH1 0x20 PUSH1 0x40 MLOAD DUP4 DUP2 SWAP5 DUP4 DUP4 ADD SWAP7 DUP8 CALLDATACOPY DUP2 ADD PUSH1 0x0 DUP4 DUP3 ADD MSTORE SUB DUP1 DUP5 MSTORE ADD DUP3 PUSH2 0xC43 JUMP JUMPDEST MLOAD SWAP1 KECCAK256 PUSH1 0x5 SSTORE STOP JUMPDEST CALLVALUE PUSH2 0x122 JUMPI PUSH1 0x0 CALLDATASIZE PUSH1 0x3 NOT ADD SLT PUSH2 0x122 JUMPI PUSH1 0x0 SLOAD PUSH1 0x40 MLOAD PUSH1 0x1 PUSH1 0x1 PUSH1 0xA0 SHL SUB SWAP1 SWAP2 AND DUP2 MSTORE PUSH1 0x20 SWAP1 RETURN JUMPDEST CALLVALUE PUSH2 0x122 JUMPI PUSH1 0x0 DUP1 PUSH1 0x3 NOT CALLDATASIZE ADD SLT PUSH2 0x537 JUMPI PUSH2 0x757 PUSH2 0x1849 JUMP JUMPDEST PUSH2 0x76E PUSH1 0x40 MLOAD PUSH2 0x766 DUP2 PUSH2 0xC0D JUMP JUMPDEST DUP3 DUP2 MSTORE PUSH2 0x17CA JUMP JUMPDEST DUP2 DUP1 PUSH1 0x40 MLOAD SWAP3 PUSH1 0x20 SWAP4 PUSH2 0x7AA DUP2 PUSH2 0x79C DUP8 DUP3 ADD SWAP5 PUSH2 0x78C DUP7 PUSH1 0x4 SWAP1 MSTORE JUMP JUMPDEST PUSH1 0x40 DUP1 DUP5 ADD MSTORE PUSH1 0x60 DUP4 ADD SWAP1 PUSH2 0x177 JUMP JUMPDEST SUB PUSH1 0x1F NOT DUP2 ADD DUP4 MSTORE DUP3 PUSH2 0xC43 JUMP JUMPDEST MLOAD SWAP1 PUSH1 0x5 PUSH1 0x1 PUSH1 0x98 SHL ADD GAS STATICCALL PUSH2 0x7BE PUSH2 0xF08 JUMP JUMPDEST SWAP1 ISZERO PUSH2 0x80A JUMPI SWAP1 PUSH2 0x7DA DUP3 DUP3 DUP1 PUSH2 0x807 SWAP6 MLOAD DUP4 ADD ADD SWAP2 ADD PUSH2 0x1875 JUMP JUMPDEST SWAP1 SWAP2 PUSH2 0x7F4 PUSH2 0x7E7 PUSH2 0xD34 JUMP JUMPDEST DUP5 DUP2 MSTORE DUP4 DUP4 DUP3 ADD MSTORE PUSH2 0x1400 JUMP JUMPDEST PUSH2 0x7FC PUSH2 0xD34 JUMP JUMPDEST SWAP3 DUP4 MSTORE DUP3 ADD MSTORE PUSH2 0x14E6 JUMP JUMPDEST DUP1 RETURN JUMPDEST PUSH1 0x40 MLOAD PUSH3 0x461BCD PUSH1 0xE5 SHL DUP2 MSTORE PUSH1 0x4 DUP2 ADD DUP4 SWAP1 MSTORE PUSH1 0x1B PUSH1 0x24 DUP3 ADD MSTORE PUSH32 0x67656E207369676E696E67206B6579706169723A206661696C65640000000000 PUSH1 0x44 DUP3 ADD MSTORE PUSH1 0x64 SWAP1 REVERT JUMPDEST CALLVALUE PUSH2 0x122 JUMPI PUSH1 0x20 CALLDATASIZE PUSH1 0x3 NOT ADD SLT PUSH2 0x122 JUMPI PUSH2 0x868 PUSH2 0x10C JUMP JUMPDEST PUSH2 0x870 PUSH2 0x1849 JUMP JUMPDEST PUSH1 0x1 PUSH1 0x1 PUSH1 0xA0 SHL SUB AND DUP1 ISZERO PUSH2 0x89C JUMPI PUSH12 0xFFFFFFFFFFFFFFFFFFFFFFFF PUSH1 0xA0 SHL PUSH1 0x6 SLOAD AND OR PUSH1 0x6 SSTORE PUSH1 0x0 DUP1 RETURN JUMPDEST PUSH1 0x40 MLOAD PUSH3 0x461BCD PUSH1 0xE5 SHL DUP2 MSTORE PUSH1 0x20 PUSH1 0x4 DUP3 ADD MSTORE PUSH1 0x1D PUSH1 0x24 DUP3 ADD MSTORE PUSH32 0x496E76616C6964206F70696E696F6E206D616B65722061646472657373000000 PUSH1 0x44 DUP3 ADD MSTORE PUSH1 0x64 SWAP1 REVERT JUMPDEST SWAP1 PUSH1 0x20 PUSH2 0x367 SWAP3 DUP2 DUP2 MSTORE ADD SWAP1 PUSH2 0x177 JUMP JUMPDEST CALLVALUE PUSH2 0x122 JUMPI PUSH2 0x900 CALLDATASIZE PUSH2 0x6A4 JUMP JUMPDEST SWAP1 PUSH2 0x909 PUSH2 0x1849 JUMP JUMPDEST PUSH1 0x5 SLOAD SWAP2 PUSH2 0x931 PUSH1 0x20 PUSH1 0x40 MLOAD DUP4 DUP2 SWAP5 DUP4 DUP4 ADD SWAP7 DUP8 CALLDATACOPY DUP2 ADD PUSH1 0x0 DUP4 DUP3 ADD MSTORE SUB DUP1 DUP5 MSTORE ADD DUP3 PUSH2 0xC43 JUMP JUMPDEST MLOAD SWAP1 KECCAK256 SUB PUSH2 0x950 JUMPI PUSH2 0x274 PUSH2 0x944 PUSH2 0x15DF JUMP JUMPDEST PUSH1 0x40 MLOAD SWAP2 DUP3 SWAP2 DUP3 PUSH2 0x8E1 JUMP JUMPDEST PUSH1 0x40 MLOAD PUSH3 0x461BCD PUSH1 0xE5 SHL DUP2 MSTORE PUSH1 0x20 PUSH1 0x4 DUP3 ADD MSTORE PUSH1 0x10 PUSH1 0x24 DUP3 ADD MSTORE PUSH16 0x125B9D985B1A59081C185CDCDDDBDC99 PUSH1 0x82 SHL PUSH1 0x44 DUP3 ADD MSTORE PUSH1 0x64 SWAP1 REVERT JUMPDEST SWAP1 PUSH2 0x9A0 PUSH1 0x20 SWAP2 SWAP5 SWAP4 SWAP5 PUSH1 0x40 DUP5 MSTORE PUSH1 0x40 DUP5 ADD SWAP1 PUSH2 0x177 JUMP JUMPDEST PUSH1 0x1 PUSH1 0x1 PUSH1 0xA0 SHL SUB SWAP1 SWAP5 AND SWAP2 ADD MSTORE JUMP JUMPDEST CALLVALUE PUSH2 0x122 JUMPI PUSH1 0x0 DUP1 PUSH1 0x3 NOT CALLDATASIZE ADD SLT PUSH2 0x537 JUMPI PUSH2 0x9CA PUSH2 0x1691 JUMP JUMPDEST SWAP1 PUSH1 0x21 DUP3 MLOAD SUB PUSH2 0xAF5 JUMPI PUSH1 0x21 DUP3 ADD MLOAD SWAP2 DUP1 MLOAD ISZERO PUSH2 0xAE1 JUMPI PUSH1 0x20 ADD MLOAD PUSH1 0xF8 SHR SWAP1 PUSH1 0x2 DUP3 EQ ISZERO DUP1 PUSH2 0xAD6 JUMPI JUMPDEST PUSH2 0xAC4 JUMPI DUP1 PUSH5 0x1000003D0 NOT PUSH1 0x40 MLOAD PUSH1 0x20 DUP2 ADD SWAP2 PUSH1 0x20 DUP4 MSTORE PUSH1 0x20 PUSH1 0x40 DUP4 ADD MSTORE PUSH1 0x20 PUSH1 0x60 DUP4 ADD MSTORE DUP1 PUSH1 0x7 DUP2 DUP1 DUP11 DUP1 MULMOD DUP11 MULMOD ADDMOD PUSH1 0x80 DUP4 ADD MSTORE PUSH4 0x400000F4 PUSH1 0x1 PUSH1 0xFE SHL SUB PUSH1 0xA0 DUP4 ADD MSTORE PUSH1 0xC0 DUP1 DUP4 ADD SWAP2 SWAP1 SWAP2 MSTORE DUP2 MSTORE PUSH2 0xA4E DUP2 PUSH2 0xC28 JUMP JUMPDEST MLOAD SWAP1 PUSH1 0x5 GAS STATICCALL SWAP2 PUSH2 0xA5D PUSH2 0xF08 JUMP JUMPDEST SWAP3 ISZERO PUSH2 0xAB2 JUMPI PUSH2 0xA82 PUSH2 0xA7C PUSH2 0xA75 PUSH2 0xA8B SWAP6 PUSH2 0xD71 JUMP JUMPDEST SWAP4 DUP5 PUSH2 0x18FB JUMP JUMPDEST PUSH1 0x1 AND SWAP1 JUMP JUMPDEST PUSH2 0xAA2 JUMPI PUSH2 0x18B8 JUMP JUMPDEST PUSH2 0xA93 PUSH2 0x1691 JUMP JUMPDEST PUSH2 0x274 PUSH1 0x40 MLOAD SWAP3 DUP4 SWAP3 DUP4 PUSH2 0x988 JUMP JUMPDEST SWAP1 PUSH2 0xAAC SWAP1 PUSH2 0x190D JUMP JUMPDEST SWAP1 PUSH2 0x18B8 JUMP JUMPDEST PUSH1 0x40 MLOAD PUSH4 0x102875ED PUSH1 0xE0 SHL DUP2 MSTORE PUSH1 0x4 SWAP1 REVERT JUMPDEST PUSH1 0x40 MLOAD PUSH4 0xAB4BE041 PUSH1 0xE0 SHL DUP2 MSTORE PUSH1 0x4 SWAP1 REVERT JUMPDEST POP PUSH1 0x3 DUP3 EQ ISZERO PUSH2 0x9F4 JUMP JUMPDEST PUSH4 0x4E487B71 PUSH1 0xE0 SHL DUP3 MSTORE PUSH1 0x32 PUSH1 0x4 MSTORE PUSH1 0x24 DUP3 REVERT JUMPDEST PUSH1 0x40 MLOAD PUSH4 0x6446A2C5 PUSH1 0xE1 SHL DUP2 MSTORE PUSH1 0x4 SWAP1 REVERT JUMPDEST CALLVALUE PUSH2 0x122 JUMPI PUSH1 0x20 CALLDATASIZE PUSH1 0x3 NOT ADD SLT PUSH2 0x122 JUMPI PUSH2 0xB20 PUSH2 0x10C JUMP JUMPDEST PUSH2 0xB28 PUSH2 0x1849 JUMP JUMPDEST PUSH1 0x1 PUSH1 0x1 PUSH1 0xA0 SHL SUB SWAP1 DUP2 AND DUP1 ISZERO PUSH2 0xB76 JUMPI PUSH1 0x0 DUP1 SLOAD PUSH1 0x1 PUSH1 0x1 PUSH1 0xA0 SHL SUB NOT DUP2 AND DUP4 OR DUP3 SSTORE SWAP1 SWAP3 AND PUSH32 0x8BE0079C531659141344CD1FD0A4F28419497F9722A3DAAFE3B4186F6B6457E0 DUP4 DUP1 LOG3 DUP1 RETURN JUMPDEST PUSH1 0x40 MLOAD PUSH4 0x1E4FBDF7 PUSH1 0xE0 SHL DUP2 MSTORE PUSH1 0x0 PUSH1 0x4 DUP3 ADD MSTORE PUSH1 0x24 SWAP1 REVERT JUMPDEST SWAP1 DUP1 PUSH1 0x20 SWAP4 SWAP3 DUP2 DUP5 MSTORE DUP5 DUP5 ADD CALLDATACOPY PUSH1 0x0 DUP3 DUP3 ADD DUP5 ADD MSTORE PUSH1 0x1F ADD PUSH1 0x1F NOT AND ADD ADD SWAP1 JUMP JUMPDEST SWAP2 PUSH1 0x20 PUSH2 0x367 SWAP4 DUP2 DUP2 MSTORE ADD SWAP2 PUSH2 0xB8F JUMP JUMPDEST PUSH4 0x4E487B71 PUSH1 0xE0 SHL PUSH1 0x0 MSTORE PUSH1 0x41 PUSH1 0x4 MSTORE PUSH1 0x24 PUSH1 0x0 REVERT JUMPDEST PUSH1 0x40 DUP2 ADD SWAP1 DUP2 LT PUSH1 0x1 PUSH1 0x1 PUSH1 0x40 SHL SUB DUP3 GT OR PUSH2 0x69F JUMPI PUSH1 0x40 MSTORE JUMP JUMPDEST PUSH1 0x60 DUP2 ADD SWAP1 DUP2 LT PUSH1 0x1 PUSH1 0x1 PUSH1 0x40 SHL SUB DUP3 GT OR PUSH2 0x69F JUMPI PUSH1 0x40 MSTORE JUMP JUMPDEST PUSH1 0x20 DUP2 ADD SWAP1 DUP2 LT PUSH1 0x1 PUSH1 0x1 PUSH1 0x40 SHL SUB DUP3 GT OR PUSH2 0x69F JUMPI PUSH1 0x40 MSTORE JUMP JUMPDEST PUSH1 0xE0 DUP2 ADD SWAP1 DUP2 LT PUSH1 0x1 PUSH1 0x1 PUSH1 0x40 SHL SUB DUP3 GT OR PUSH2 0x69F JUMPI PUSH1 0x40 MSTORE JUMP JUMPDEST SWAP1 PUSH1 0x1F DUP1 NOT SWAP2 ADD AND DUP2 ADD SWAP1 DUP2 LT PUSH1 0x1 PUSH1 0x1 PUSH1 0x40 SHL SUB DUP3 GT OR PUSH2 0x69F JUMPI PUSH1 0x40 MSTORE JUMP JUMPDEST SWAP2 PUSH1 0x20 SWAP2 PUSH2 0x9A0 SWAP2 SWAP6 SWAP5 SWAP6 PUSH1 0x40 DUP6 MSTORE PUSH1 0x40 DUP6 ADD SWAP2 PUSH2 0xB8F JUMP JUMPDEST SWAP1 PUSH1 0x1 DUP3 DUP2 SHR SWAP3 AND DUP1 ISZERO PUSH2 0xCAD JUMPI JUMPDEST PUSH1 0x20 DUP4 LT EQ PUSH2 0xC97 JUMPI JUMP JUMPDEST PUSH4 0x4E487B71 PUSH1 0xE0 SHL PUSH1 0x0 MSTORE PUSH1 0x22 PUSH1 0x4 MSTORE PUSH1 0x24 PUSH1 0x0 REVERT JUMPDEST SWAP2 PUSH1 0x7F AND SWAP2 PUSH2 0xC8C JUMP JUMPDEST PUSH1 0x2 SLOAD PUSH1 0x0 SWAP3 SWAP2 PUSH2 0xCC7 DUP3 PUSH2 0xC7D JUMP JUMPDEST SWAP2 PUSH1 0x1 SWAP1 DUP2 DUP2 AND SWAP1 DUP2 ISZERO PUSH2 0xD21 JUMPI POP PUSH1 0x1 EQ PUSH2 0xCE2 JUMPI POP POP POP JUMP JUMPDEST SWAP1 SWAP2 SWAP3 SWAP4 POP PUSH1 0x2 PUSH1 0x0 MSTORE PUSH1 0x0 DUP1 MLOAD PUSH1 0x20 PUSH2 0x1922 DUP4 CODECOPY DUP2 MLOAD SWAP2 MSTORE SWAP1 PUSH1 0x0 SWAP2 JUMPDEST DUP5 DUP4 LT PUSH2 0xD0E JUMPI POP POP POP ADD SWAP1 JUMP JUMPDEST DUP2 DUP2 PUSH1 0x20 SWAP3 SLOAD DUP6 DUP8 ADD MSTORE ADD SWAP3 ADD SWAP2 PUSH2 0xD00 JUMP JUMPDEST PUSH1 0xFF NOT AND DUP4 MSTORE POP POP DUP2 ISZERO ISZERO SWAP1 SWAP2 MUL ADD SWAP2 POP JUMP JUMPDEST PUSH1 0x40 MLOAD SWAP1 PUSH2 0xD41 DUP3 PUSH2 0xBD7 JUMP JUMPDEST JUMP JUMPDEST PUSH1 0x1 PUSH1 0x1 PUSH1 0x40 SHL SUB DUP2 GT PUSH2 0x69F JUMPI PUSH1 0x1F ADD PUSH1 0x1F NOT AND PUSH1 0x20 ADD SWAP1 JUMP JUMPDEST PUSH1 0x40 MLOAD SWAP1 PUSH2 0xD6B DUP3 PUSH2 0xC0D JUMP JUMPDEST PUSH1 0x0 DUP3 MSTORE JUMP JUMPDEST PUSH1 0x20 DUP2 MLOAD SWAP2 ADD MLOAD SWAP1 PUSH1 0x20 DUP2 LT PUSH2 0xD85 JUMPI POP SWAP1 JUMP JUMPDEST PUSH1 0x0 NOT SWAP1 PUSH1 0x20 SUB PUSH1 0x3 SHL SHL AND SWAP1 JUMP JUMPDEST PUSH2 0xE56 PUSH2 0xEF5 SWAP5 SWAP9 SWAP6 SWAP4 SWAP7 SWAP3 SWAP8 SWAP9 DUP3 PUSH1 0x40 SWAP6 DUP7 MLOAD SWAP11 DUP12 PUSH2 0xDBA PUSH1 0x20 SWAP13 DUP14 DUP4 ADD SWAP4 DUP5 PUSH2 0xBB0 JUMP JUMPDEST SUB SWAP12 PUSH2 0xDCE PUSH1 0x1F NOT SWAP14 DUP15 DUP2 ADD DUP4 MSTORE DUP3 PUSH2 0xC43 JUMP JUMPDEST MLOAD SWAP1 KECCAK256 SWAP3 DUP2 ISZERO PUSH2 0xEFC JUMPI PUSH2 0xE34 SWAP2 PUSH2 0xDFE DUP14 DUP14 PUSH2 0xDF2 DUP13 MLOAD SWAP5 DUP6 SWAP3 DUP4 ADD SWAP7 DUP8 PUSH2 0xBB0 JUMP JUMPDEST SUB SWAP1 DUP2 ADD DUP4 MSTORE DUP3 PUSH2 0xC43 JUMP JUMPDEST MLOAD SWAP1 KECCAK256 JUMPDEST DUP8 MLOAD DUP12 DUP2 ADD SWAP5 DUP6 MSTORE PUSH1 0x20 DUP6 ADD SWAP2 SWAP1 SWAP2 MSTORE PUSH1 0x1 PUSH1 0x1 PUSH1 0xA0 SHL SUB SWAP1 SWAP3 AND PUSH1 0x40 DUP5 ADD MSTORE DUP2 PUSH1 0x60 DUP5 ADD JUMPDEST SUB DUP12 DUP2 ADD DUP4 MSTORE DUP3 PUSH2 0xC43 JUMP JUMPDEST MLOAD SWAP1 KECCAK256 SWAP9 PUSH2 0xE4A DUP6 MLOAD SWAP4 DUP5 SWAP3 DUP11 DUP5 ADD SWAP7 DUP8 PUSH2 0xC64 JUMP JUMPDEST SUB DUP9 DUP2 ADD DUP4 MSTORE DUP3 PUSH2 0xC43 JUMP JUMPDEST MLOAD SWAP1 KECCAK256 SWAP6 PUSH2 0xE93 PUSH2 0xEA1 DUP4 MLOAD PUSH2 0xE7D DUP2 PUSH2 0xE71 DUP11 DUP3 ADD PUSH2 0xCB7 JUMP JUMPDEST SUB DUP11 DUP2 ADD DUP4 MSTORE DUP3 PUSH2 0xC43 JUMP JUMPDEST DUP5 MLOAD DUP9 DUP2 ADD DUP12 DUP2 MSTORE PUSH2 0xE93 SWAP1 DUP3 SWAP1 PUSH1 0x20 ADD PUSH2 0xE28 JUMP JUMPDEST PUSH2 0xE9B PUSH2 0xD5E JUMP JUMPDEST SWAP2 PUSH2 0x171E JUMP JUMPDEST SWAP7 PUSH2 0xEBA PUSH2 0xEB5 PUSH2 0xEB0 PUSH2 0xD5E JUMP JUMPDEST PUSH2 0x17CA JUMP JUMPDEST PUSH2 0xD71 JUMP JUMPDEST SWAP7 PUSH2 0xDF2 DUP9 DUP7 MLOAD SWAP7 PUSH2 0xEDD DUP9 PUSH2 0xED1 DUP7 DUP3 ADD PUSH2 0xCB7 JUMP JUMPDEST SUB DUP7 DUP2 ADD DUP11 MSTORE DUP10 PUSH2 0xC43 JUMP JUMPDEST MLOAD SWAP6 DUP7 SWAP4 DUP5 ADD PUSH1 0x20 SWAP1 SWAP4 SWAP3 SWAP2 SWAP4 PUSH1 0x40 DUP2 ADD SWAP5 DUP2 MSTORE ADD MSTORE JUMP JUMPDEST SWAP3 SWAP4 SWAP3 SWAP2 SWAP1 JUMP JUMPDEST POP POP PUSH2 0xE34 PUSH1 0x0 PUSH2 0xE02 JUMP JUMPDEST RETURNDATASIZE ISZERO PUSH2 0xF33 JUMPI RETURNDATASIZE SWAP1 PUSH2 0xF19 DUP3 PUSH2 0xD43 JUMP JUMPDEST SWAP2 PUSH2 0xF27 PUSH1 0x40 MLOAD SWAP4 DUP5 PUSH2 0xC43 JUMP JUMPDEST DUP3 MSTORE RETURNDATASIZE PUSH1 0x0 PUSH1 0x20 DUP5 ADD RETURNDATACOPY JUMP JUMPDEST PUSH1 0x60 SWAP1 JUMP JUMPDEST DUP2 PUSH1 0x1F DUP3 ADD SLT ISZERO PUSH2 0x122 JUMPI DUP1 MLOAD PUSH2 0xF4E DUP2 PUSH2 0xD43 JUMP JUMPDEST SWAP3 PUSH2 0xF5C PUSH1 0x40 MLOAD SWAP5 DUP6 PUSH2 0xC43 JUMP JUMPDEST DUP2 DUP5 MSTORE PUSH1 0x20 DUP3 DUP5 ADD ADD GT PUSH2 0x122 JUMPI PUSH2 0x367 SWAP2 PUSH1 0x20 DUP1 DUP6 ADD SWAP2 ADD PUSH2 0x154 JUMP JUMPDEST SWAP2 PUSH1 0x60 DUP4 DUP4 SUB SLT PUSH2 0x122 JUMPI DUP3 MLOAD PUSH2 0xF90 DUP2 PUSH2 0x278 JUMP JUMPDEST SWAP3 PUSH1 0x20 DUP2 ADD MLOAD PUSH2 0xF9F DUP2 PUSH2 0x278 JUMP JUMPDEST SWAP3 PUSH1 0x40 DUP3 ADD MLOAD PUSH1 0x1 PUSH1 0x1 PUSH1 0x40 SHL SUB DUP2 GT PUSH2 0x122 JUMPI PUSH2 0x367 SWAP3 ADD PUSH2 0xF38 JUMP JUMPDEST SWAP3 SWAP2 SWAP3 PUSH2 0xFC9 DUP3 PUSH2 0xD43 JUMP JUMPDEST SWAP2 PUSH2 0xFD7 PUSH1 0x40 MLOAD SWAP4 DUP5 PUSH2 0xC43 JUMP JUMPDEST DUP3 SWAP5 DUP2 DUP5 MSTORE DUP2 DUP4 ADD GT PUSH2 0x122 JUMPI DUP3 DUP2 PUSH1 0x20 SWAP4 DUP5 PUSH1 0x0 SWAP7 ADD CALLDATACOPY ADD ADD MSTORE JUMP JUMPDEST SWAP1 PUSH1 0x1F DUP3 GT PUSH2 0x1001 JUMPI POP POP JUMP JUMPDEST PUSH1 0x1 SWAP2 PUSH1 0x0 SWAP1 PUSH1 0x1 PUSH1 0x0 MSTORE PUSH1 0x0 DUP1 MLOAD PUSH1 0x20 PUSH2 0x1942 DUP4 CODECOPY DUP2 MLOAD SWAP2 MSTORE SWAP1 PUSH1 0x20 PUSH1 0x1F DUP6 ADD PUSH1 0x5 SHR DUP4 ADD SWAP5 LT PUSH2 0x104E JUMPI JUMPDEST PUSH1 0x1F ADD PUSH1 0x5 SHR ADD SWAP2 JUMPDEST DUP3 DUP2 LT PUSH2 0x1044 JUMPI POP POP POP POP JUMP JUMPDEST DUP2 DUP2 SSTORE DUP4 ADD PUSH2 0x1037 JUMP JUMPDEST SWAP1 SWAP3 POP DUP3 SWAP1 PUSH2 0x102E JUMP JUMPDEST PUSH1 0x1F DUP2 GT PUSH2 0x1064 JUMPI POP POP JUMP JUMPDEST PUSH1 0x0 SWAP1 PUSH1 0x2 PUSH1 0x0 MSTORE PUSH1 0x0 DUP1 MLOAD PUSH1 0x20 PUSH2 0x1922 DUP4 CODECOPY DUP2 MLOAD SWAP2 MSTORE SWAP1 PUSH1 0x20 PUSH1 0x1F DUP6 ADD PUSH1 0x5 SHR DUP4 ADD SWAP5 LT PUSH2 0x10AE JUMPI JUMPDEST PUSH1 0x1F ADD PUSH1 0x5 SHR ADD SWAP2 JUMPDEST DUP3 DUP2 LT PUSH2 0x10A3 JUMPI POP POP POP JUMP JUMPDEST DUP2 DUP2 SSTORE PUSH1 0x1 ADD PUSH2 0x1097 JUMP JUMPDEST SWAP1 SWAP3 POP DUP3 SWAP1 PUSH2 0x108E JUMP JUMPDEST PUSH1 0x1F DUP2 GT PUSH2 0x10C4 JUMPI POP POP JUMP JUMPDEST PUSH1 0x0 SWAP1 PUSH1 0x3 PUSH1 0x0 MSTORE PUSH32 0xC2575A0E9E593C00F959F8C92F12DB2869C3395A3B0502D05E2516446F71F85B SWAP1 PUSH1 0x20 PUSH1 0x1F DUP6 ADD PUSH1 0x5 SHR DUP4 ADD SWAP5 LT PUSH2 0x1120 JUMPI JUMPDEST PUSH1 0x1F ADD PUSH1 0x5 SHR ADD SWAP2 JUMPDEST DUP3 DUP2 LT PUSH2 0x1115 JUMPI POP POP POP JUMP JUMPDEST DUP2 DUP2 SSTORE PUSH1 0x1 ADD PUSH2 0x1109 JUMP JUMPDEST SWAP1 SWAP3 POP DUP3 SWAP1 PUSH2 0x1100 JUMP JUMPDEST PUSH1 0x1F DUP2 GT PUSH2 0x1136 JUMPI POP POP JUMP JUMPDEST PUSH1 0x0 SWAP1 PUSH1 0x4 PUSH1 0x0 MSTORE PUSH32 0x8A35ACFBC15FF81A39AE7D344FD709F28E8600B4AA8C65C6B64BFE7FE36BD19B SWAP1 PUSH1 0x20 PUSH1 0x1F DUP6 ADD PUSH1 0x5 SHR DUP4 ADD SWAP5 LT PUSH2 0x1192 JUMPI JUMPDEST PUSH1 0x1F ADD PUSH1 0x5 SHR ADD SWAP2 JUMPDEST DUP3 DUP2 LT PUSH2 0x1187 JUMPI POP POP POP JUMP JUMPDEST DUP2 DUP2 SSTORE PUSH1 0x1 ADD PUSH2 0x117B JUMP JUMPDEST SWAP1 SWAP3 POP DUP3 SWAP1 PUSH2 0x1172 JUMP JUMPDEST SWAP1 DUP2 MLOAD PUSH1 0x1 PUSH1 0x1 PUSH1 0x40 SHL SUB DUP2 GT PUSH2 0x69F JUMPI PUSH2 0x11C1 DUP2 PUSH2 0x11BC PUSH1 0x2 SLOAD PUSH2 0xC7D JUMP JUMPDEST PUSH2 0x1058 JUMP JUMPDEST PUSH1 0x20 DUP1 PUSH1 0x1F DUP4 GT PUSH1 0x1 EQ PUSH2 0x11F8 JUMPI POP DUP2 SWAP1 PUSH2 0x11F3 SWAP4 SWAP5 PUSH1 0x0 SWAP3 PUSH2 0x61E JUMPI POP POP DUP2 PUSH1 0x1 SHL SWAP2 PUSH1 0x0 NOT SWAP1 PUSH1 0x3 SHL SHR NOT AND OR SWAP1 JUMP JUMPDEST PUSH1 0x2 SSTORE JUMP JUMPDEST SWAP1 PUSH1 0x1F NOT DUP4 AND SWAP5 PUSH2 0x1219 PUSH1 0x2 PUSH1 0x0 MSTORE PUSH1 0x0 DUP1 MLOAD PUSH1 0x20 PUSH2 0x1922 DUP4 CODECOPY DUP2 MLOAD SWAP2 MSTORE SWAP1 JUMP JUMPDEST SWAP3 PUSH1 0x0 SWAP1 JUMPDEST DUP8 DUP3 LT PUSH2 0x1256 JUMPI POP POP DUP4 PUSH1 0x1 SWAP6 SWAP7 LT PUSH2 0x123D JUMPI JUMPDEST POP POP POP DUP2 SHL ADD PUSH1 0x2 SSTORE JUMP JUMPDEST ADD MLOAD PUSH1 0x0 NOT PUSH1 0xF8 DUP5 PUSH1 0x3 SHL AND SHR NOT AND SWAP1 SSTORE CODESIZE DUP1 DUP1 PUSH2 0x1232 JUMP JUMPDEST DUP1 PUSH1 0x1 DUP6 SWAP7 DUP3 SWAP5 SWAP7 DUP7 ADD MLOAD DUP2 SSTORE ADD SWAP6 ADD SWAP4 ADD SWAP1 PUSH2 0x121E JUMP JUMPDEST SWAP1 DUP2 MLOAD PUSH1 0x1 PUSH1 0x1 PUSH1 0x40 SHL SUB DUP2 GT PUSH2 0x69F JUMPI PUSH2 0x128E DUP2 PUSH2 0x11BC PUSH1 0x2 SLOAD PUSH2 0xC7D JUMP JUMPDEST PUSH1 0x20 DUP1 PUSH1 0x1F DUP4 GT PUSH1 0x1 EQ PUSH2 0x12C0 JUMPI POP DUP2 SWAP1 PUSH2 0x11F3 SWAP4 SWAP5 PUSH1 0x0 SWAP3 PUSH2 0x61E JUMPI POP POP DUP2 PUSH1 0x1 SHL SWAP2 PUSH1 0x0 NOT SWAP1 PUSH1 0x3 SHL SHR NOT AND OR SWAP1 JUMP JUMPDEST SWAP1 PUSH1 0x1F NOT DUP4 AND SWAP5 PUSH2 0x12E1 PUSH1 0x2 PUSH1 0x0 MSTORE PUSH1 0x0 DUP1 MLOAD PUSH1 0x20 PUSH2 0x1922 DUP4 CODECOPY DUP2 MLOAD SWAP2 MSTORE SWAP1 JUMP JUMPDEST SWAP3 PUSH1 0x0 SWAP1 JUMPDEST DUP8 DUP3 LT PUSH2 0x1304 JUMPI POP POP DUP4 PUSH1 0x1 SWAP6 SWAP7 LT PUSH2 0x123D JUMPI POP POP POP DUP2 SHL ADD PUSH1 0x2 SSTORE JUMP JUMPDEST DUP1 PUSH1 0x1 DUP6 SWAP7 DUP3 SWAP5 SWAP7 DUP7 ADD MLOAD DUP2 SSTORE ADD SWAP6 ADD SWAP4 ADD SWAP1 PUSH2 0x12E6 JUMP JUMPDEST SWAP1 DUP2 MLOAD PUSH1 0x1 PUSH1 0x1 PUSH1 0x40 SHL SUB DUP2 GT PUSH2 0x69F JUMPI PUSH2 0x1341 DUP2 PUSH2 0x133C PUSH1 0x4 SLOAD PUSH2 0xC7D JUMP JUMPDEST PUSH2 0x112A JUMP JUMPDEST PUSH1 0x20 DUP1 PUSH1 0x1F DUP4 GT PUSH1 0x1 EQ PUSH2 0x1378 JUMPI POP DUP2 SWAP1 PUSH2 0x1373 SWAP4 SWAP5 PUSH1 0x0 SWAP3 PUSH2 0x61E JUMPI POP POP DUP2 PUSH1 0x1 SHL SWAP2 PUSH1 0x0 NOT SWAP1 PUSH1 0x3 SHL SHR NOT AND OR SWAP1 JUMP JUMPDEST PUSH1 0x4 SSTORE JUMP JUMPDEST SWAP1 PUSH1 0x1F NOT DUP4 AND SWAP5 PUSH2 0x13AB PUSH1 0x4 PUSH1 0x0 MSTORE PUSH32 0x8A35ACFBC15FF81A39AE7D344FD709F28E8600B4AA8C65C6B64BFE7FE36BD19B SWAP1 JUMP JUMPDEST SWAP3 PUSH1 0x0 SWAP1 JUMPDEST DUP8 DUP3 LT PUSH2 0x13E8 JUMPI POP POP DUP4 PUSH1 0x1 SWAP6 SWAP7 LT PUSH2 0x13CF JUMPI JUMPDEST POP POP POP DUP2 SHL ADD PUSH1 0x4 SSTORE JUMP JUMPDEST ADD MLOAD PUSH1 0x0 NOT PUSH1 0xF8 DUP5 PUSH1 0x3 SHL AND SHR NOT AND SWAP1 SSTORE CODESIZE DUP1 DUP1 PUSH2 0x13C4 JUMP JUMPDEST DUP1 PUSH1 0x1 DUP6 SWAP7 DUP3 SWAP5 SWAP7 DUP7 ADD MLOAD DUP2 SSTORE ADD SWAP6 ADD SWAP4 ADD SWAP1 PUSH2 0x13B0 JUMP JUMPDEST SWAP1 DUP2 MLOAD SWAP2 DUP3 MLOAD PUSH1 0x1 PUSH1 0x1 PUSH1 0x40 SHL SUB DUP2 GT PUSH2 0x69F JUMPI PUSH1 0x1 SWAP1 PUSH2 0x1425 DUP2 PUSH2 0x5DA DUP5 SLOAD PUSH2 0xC7D JUMP JUMPDEST PUSH1 0x20 SWAP5 DUP6 PUSH1 0x1 PUSH1 0x1F DUP5 GT EQ PUSH2 0x146A JUMPI POP DUP2 PUSH1 0x20 SWAP5 SWAP4 SWAP3 PUSH2 0xD41 SWAP7 SWAP8 PUSH2 0x1460 SWAP4 PUSH1 0x0 SWAP3 PUSH2 0x61E JUMPI POP POP DUP2 PUSH1 0x1 SHL SWAP2 PUSH1 0x0 NOT SWAP1 PUSH1 0x3 SHL SHR NOT AND OR SWAP1 JUMP JUMPDEST SWAP1 SSTORE JUMPDEST ADD MLOAD PUSH2 0x126E JUMP JUMPDEST PUSH1 0x1 PUSH1 0x0 MSTORE SWAP6 SWAP1 PUSH1 0x1F NOT DUP4 AND PUSH1 0x0 DUP1 MLOAD PUSH1 0x20 PUSH2 0x1942 DUP4 CODECOPY DUP2 MLOAD SWAP2 MSTORE SWAP8 PUSH1 0x0 SWAP1 JUMPDEST DUP3 DUP3 LT PUSH2 0x14CF JUMPI POP POP SWAP7 DUP5 SWAP4 SWAP2 SWAP3 PUSH1 0x20 SWAP7 SWAP6 SWAP4 DUP4 PUSH2 0xD41 SWAP10 SWAP11 LT PUSH2 0x14B6 JUMPI JUMPDEST POP POP POP DUP2 SHL ADD SWAP1 SSTORE PUSH2 0x1463 JUMP JUMPDEST ADD MLOAD PUSH1 0x0 NOT PUSH1 0xF8 DUP5 PUSH1 0x3 SHL AND SHR NOT AND SWAP1 SSTORE CODESIZE DUP1 DUP1 PUSH2 0x14A9 JUMP JUMPDEST DUP4 DUP6 ADD MLOAD DUP11 SSTORE SWAP9 DUP7 ADD SWAP9 SWAP4 DUP5 ADD SWAP4 SWAP1 DUP2 ADD SWAP1 PUSH2 0x148A JUMP JUMPDEST DUP1 MLOAD DUP1 MLOAD SWAP1 PUSH1 0x1 PUSH1 0x1 PUSH1 0x40 SHL SUB DUP3 GT PUSH2 0x69F JUMPI PUSH2 0x150D DUP3 PUSH2 0x1508 PUSH1 0x3 SLOAD PUSH2 0xC7D JUMP JUMPDEST PUSH2 0x10B8 JUMP JUMPDEST PUSH1 0x20 SWAP1 DUP2 PUSH1 0x1 PUSH1 0x1F DUP6 GT EQ PUSH2 0x1551 JUMPI POP DUP3 PUSH1 0x20 SWAP4 PUSH2 0xD41 SWAP6 SWAP4 PUSH2 0x1546 SWAP4 PUSH1 0x0 SWAP3 PUSH2 0x61E JUMPI POP POP DUP2 PUSH1 0x1 SHL SWAP2 PUSH1 0x0 NOT SWAP1 PUSH1 0x3 SHL SHR NOT AND OR SWAP1 JUMP JUMPDEST PUSH1 0x3 SSTORE JUMPDEST ADD MLOAD PUSH2 0x131C JUMP JUMPDEST PUSH1 0x3 PUSH1 0x0 MSTORE SWAP2 SWAP1 PUSH1 0x1F NOT DUP5 AND PUSH32 0xC2575A0E9E593C00F959F8C92F12DB2869C3395A3B0502D05E2516446F71F85B SWAP4 PUSH1 0x0 SWAP1 JUMPDEST DUP3 DUP3 LT PUSH2 0x15C7 JUMPI POP POP SWAP3 PUSH1 0x1 SWAP3 DUP6 SWAP3 PUSH1 0x20 SWAP7 PUSH2 0xD41 SWAP9 SWAP7 LT PUSH2 0x15AE JUMPI JUMPDEST POP POP POP DUP2 SHL ADD PUSH1 0x3 SSTORE PUSH2 0x154A JUMP JUMPDEST ADD MLOAD PUSH1 0x0 NOT PUSH1 0xF8 DUP5 PUSH1 0x3 SHL AND SHR NOT AND SWAP1 SSTORE CODESIZE DUP1 DUP1 PUSH2 0x15A0 JUMP JUMPDEST DUP1 PUSH1 0x1 DUP7 SWAP8 DUP3 SWAP5 SWAP8 DUP8 ADD MLOAD DUP2 SSTORE ADD SWAP7 ADD SWAP5 ADD SWAP1 PUSH2 0x1583 JUMP JUMPDEST PUSH1 0x40 MLOAD SWAP1 PUSH1 0x0 DUP3 PUSH1 0x2 SLOAD SWAP2 PUSH2 0x15F3 DUP4 PUSH2 0xC7D JUMP JUMPDEST DUP1 DUP4 MSTORE SWAP3 PUSH1 0x20 SWAP1 PUSH1 0x1 SWAP1 DUP2 DUP2 AND SWAP1 DUP2 ISZERO PUSH2 0x166D JUMPI POP PUSH1 0x1 EQ PUSH2 0x161E JUMPI JUMPDEST POP POP PUSH2 0xD41 SWAP3 POP SUB DUP4 PUSH2 0xC43 JUMP JUMPDEST SWAP2 POP SWAP3 PUSH1 0x2 PUSH1 0x0 MSTORE PUSH1 0x0 DUP1 MLOAD PUSH1 0x20 PUSH2 0x1922 DUP4 CODECOPY DUP2 MLOAD SWAP2 MSTORE SWAP4 PUSH1 0x0 SWAP3 JUMPDEST DUP3 DUP5 LT PUSH2 0x1655 JUMPI POP PUSH2 0xD41 SWAP5 POP POP POP DUP2 ADD PUSH1 0x20 ADD CODESIZE DUP1 PUSH2 0x1610 JUMP JUMPDEST DUP6 SLOAD DUP9 DUP6 ADD DUP4 ADD MSTORE SWAP5 DUP6 ADD SWAP5 DUP8 SWAP5 POP SWAP3 DUP2 ADD SWAP3 PUSH2 0x163A JUMP JUMPDEST SWAP2 POP POP PUSH1 0x20 SWAP3 POP PUSH2 0xD41 SWAP5 SWAP2 POP PUSH1 0xFF NOT AND DUP3 DUP5 ADD MSTORE ISZERO ISZERO PUSH1 0x5 SHL DUP3 ADD ADD CODESIZE DUP1 PUSH2 0x1610 JUMP JUMPDEST PUSH1 0x40 MLOAD SWAP1 PUSH1 0x0 DUP3 PUSH1 0x1 SWAP2 PUSH1 0x1 SLOAD PUSH2 0x16A7 DUP2 PUSH2 0xC7D JUMP JUMPDEST DUP1 DUP5 MSTORE SWAP4 PUSH1 0x20 SWAP2 PUSH1 0x1 DUP2 AND SWAP1 DUP2 ISZERO PUSH2 0x166D JUMPI POP PUSH1 0x1 EQ PUSH2 0x16CF JUMPI POP POP PUSH2 0xD41 SWAP3 POP SUB DUP4 PUSH2 0xC43 JUMP JUMPDEST SWAP2 POP SWAP3 PUSH1 0x1 PUSH1 0x0 MSTORE PUSH1 0x0 DUP1 MLOAD PUSH1 0x20 PUSH2 0x1942 DUP4 CODECOPY DUP2 MLOAD SWAP2 MSTORE SWAP4 PUSH1 0x0 SWAP3 JUMPDEST DUP3 DUP5 LT PUSH2 0x1706 JUMPI POP PUSH2 0xD41 SWAP5 POP POP POP DUP2 ADD PUSH1 0x20 ADD CODESIZE DUP1 PUSH2 0x1610 JUMP JUMPDEST DUP6 SLOAD DUP9 DUP6 ADD DUP4 ADD MSTORE SWAP5 DUP6 ADD SWAP5 DUP8 SWAP5 POP SWAP3 DUP2 ADD SWAP3 PUSH2 0x16EB JUMP JUMPDEST PUSH2 0xDF2 PUSH2 0x1779 PUSH1 0x0 SWAP5 SWAP4 DUP6 SWAP5 PUSH1 0x40 MLOAD SWAP4 DUP5 SWAP2 PUSH2 0x1769 PUSH2 0x1756 PUSH1 0x20 DUP6 ADD SWAP9 PUSH2 0x1745 DUP11 PUSH1 0x4 SWAP1 MSTORE JUMP JUMPDEST PUSH1 0x80 PUSH1 0x40 DUP8 ADD MSTORE PUSH1 0xA0 DUP7 ADD SWAP1 PUSH2 0x177 JUMP JUMPDEST PUSH1 0x1F NOT SWAP6 DUP7 DUP7 DUP4 SUB ADD PUSH1 0x60 DUP8 ADD MSTORE PUSH2 0x177 JUMP JUMPDEST SWAP1 DUP5 DUP5 DUP4 SUB ADD PUSH1 0x80 DUP6 ADD MSTORE PUSH2 0x177 JUMP JUMPDEST MLOAD SWAP1 PUSH1 0x6 PUSH1 0x1 PUSH1 0x98 SHL ADD GAS STATICCALL PUSH2 0x178D PUSH2 0xF08 JUMP JUMPDEST SWAP1 ISZERO PUSH2 0x1796 JUMPI SWAP1 JUMP JUMPDEST PUSH1 0x40 MLOAD PUSH3 0x461BCD PUSH1 0xE5 SHL DUP2 MSTORE PUSH1 0x20 PUSH1 0x4 DUP3 ADD MSTORE PUSH1 0xC PUSH1 0x24 DUP3 ADD MSTORE PUSH12 0x1CDA59DB8E8819985A5B1959 PUSH1 0xA2 SHL PUSH1 0x44 DUP3 ADD MSTORE PUSH1 0x64 SWAP1 REVERT JUMPDEST PUSH1 0x0 DUP1 SWAP2 PUSH1 0x40 MLOAD PUSH2 0x17F1 DUP2 PUSH2 0x79C PUSH1 0x20 DUP3 ADD SWAP5 PUSH1 0x20 DUP7 MSTORE PUSH1 0x40 DUP1 DUP5 ADD MSTORE PUSH1 0x60 DUP4 ADD SWAP1 PUSH2 0x177 JUMP JUMPDEST MLOAD SWAP1 PUSH1 0x1 PUSH1 0x1 PUSH1 0x98 SHL ADD GAS STATICCALL PUSH2 0x1805 PUSH2 0xF08 JUMP JUMPDEST SWAP1 ISZERO PUSH2 0x180E JUMPI SWAP1 JUMP JUMPDEST PUSH1 0x40 MLOAD PUSH3 0x461BCD PUSH1 0xE5 SHL DUP2 MSTORE PUSH1 0x20 PUSH1 0x4 DUP3 ADD MSTORE PUSH1 0x13 PUSH1 0x24 DUP3 ADD MSTORE PUSH19 0x1C985B991BDB509E5D195CCE8819985A5B1959 PUSH1 0x6A SHL PUSH1 0x44 DUP3 ADD MSTORE PUSH1 0x64 SWAP1 REVERT JUMPDEST PUSH1 0x0 SLOAD PUSH1 0x1 PUSH1 0x1 PUSH1 0xA0 SHL SUB AND CALLER SUB PUSH2 0x185D JUMPI JUMP JUMPDEST PUSH1 0x40 MLOAD PUSH4 0x118CDAA7 PUSH1 0xE0 SHL DUP2 MSTORE CALLER PUSH1 0x4 DUP3 ADD MSTORE PUSH1 0x24 SWAP1 REVERT JUMPDEST SWAP2 SWAP1 SWAP2 PUSH1 0x40 DUP2 DUP5 SUB SLT PUSH2 0x122 JUMPI DUP1 MLOAD SWAP3 PUSH1 0x1 PUSH1 0x1 PUSH1 0x40 SHL SUB SWAP4 DUP5 DUP2 GT PUSH2 0x122 JUMPI DUP2 PUSH2 0x18A1 SWAP2 DUP5 ADD PUSH2 0xF38 JUMP JUMPDEST SWAP4 PUSH1 0x20 DUP4 ADD MLOAD SWAP1 DUP2 GT PUSH2 0x122 JUMPI PUSH2 0x367 SWAP3 ADD PUSH2 0xF38 JUMP JUMPDEST PUSH1 0x40 MLOAD SWAP2 PUSH1 0x20 DUP4 ADD SWAP2 DUP3 MSTORE PUSH1 0x40 DUP4 ADD MSTORE PUSH1 0x40 DUP3 MSTORE PUSH2 0x18D5 DUP3 PUSH2 0xBF2 JUMP JUMPDEST SWAP1 MLOAD SWAP1 KECCAK256 PUSH1 0x1 PUSH1 0x1 PUSH1 0xA0 SHL SUB AND SWAP1 JUMP JUMPDEST PUSH4 0x4E487B71 PUSH1 0xE0 SHL PUSH1 0x0 MSTORE PUSH1 0x11 PUSH1 0x4 MSTORE PUSH1 0x24 PUSH1 0x0 REVERT JUMPDEST SWAP2 SWAP1 DUP3 ADD DUP1 SWAP3 GT PUSH2 0x1908 JUMPI JUMP JUMPDEST PUSH2 0x18E5 JUMP JUMPDEST PUSH5 0x1000003D0 NOT SWAP1 DUP2 SUB SWAP2 SWAP1 DUP3 GT PUSH2 0x1908 JUMPI JUMP INVALID BLOCKHASH JUMPI DUP8 STATICCALL SLT 0xA8 0x23 0xE0 CALLCODE 0xB7 PUSH4 0x1CC41B3B 0xA8 DUP3 DUP12 CALLER 0x21 0xCA DUP2 GT GT STATICCALL PUSH22 0xCD3AA3BB5ACEB10E2D527612073B26EECDFD717E6A32 0xC DELEGATECALL 0x4B BLOBBASEFEE STATICCALL 0xC2 0xB0 PUSH20 0x2D9FCBE2B7FA0CF6A2646970667358221220840E 0xA7 LOG3 BLOBHASH RETURNDATACOPY CALL 0xE7 0x29 0xA7 PUSH1 0xB 0xF EXTCODEHASH SLT 0xCC DUP1 PUSH17 0x7BF5E06BE7E1B1AA975265AA1D8264736F PUSH13 0x63430008180033000000000000 "},"methodIdentifiers":{"generateKey()":"922dd7d9","getOpinion(uint256)":"4f8dd40a","getSigningKeypairPrivateKey(string)":"aa775b4a","getSigningKeypairPublicKey()":"e498de5f","isKernelAllowed(uint256)":"48d08eeb","owner()":"8da5cb5b","renounceOwnership()":"715018a6","setKernel(uint256,bool)":"270e7c2f","setOpinionMaker(address)":"95f7b6ab","setRuntimeDigest(bytes32,bool)":"4cf0d40a","setSigningKeypair(bytes,bytes)":"7355f88b","setSigningKeypairRetrievalPassword(string)":"7998efb8","setWhitelist(address,bool)":"53d6fd59","sign(address,bytes,bytes,bytes,bytes)":"09eef4a5","transferOwnership(address)":"f2fde38b"}}}}}