{"contracts/CustomOpinionMaker.sol":{"CustomOpinionMaker":{"abi":[{"inputs":[{"internalType":"address","name":"initialOwner","type":"address"}],"stateMutability":"nonpayable","type":"constructor"},{"inputs":[{"internalType":"address","name":"owner","type":"address"}],"name":"OwnableInvalidOwner","type":"error"},{"inputs":[{"internalType":"address","name":"account","type":"address"}],"name":"OwnableUnauthorizedAccount","type":"error"},{"anonymous":false,"inputs":[{"indexed":true,"internalType":"address","name":"previousOwner","type":"address"},{"indexed":true,"internalType":"address","name":"newOwner","type":"address"}],"name":"OwnershipTransferred","type":"event"},{"inputs":[{"internalType":"bytes","name":"executionPlan","type":"bytes"},{"internalType":"uint256","name":"kernelId","type":"uint256"}],"name":"getOpinion","outputs":[{"internalType":"bool","name":"opinion","type":"bool"},{"internalType":"bool","name":"isFinalized","type":"bool"},{"internalType":"bytes","name":"updatedPlan","type":"bytes"}],"stateMutability":"view","type":"function"},{"inputs":[],"name":"owner","outputs":[{"internalType":"address","name":"","type":"address"}],"stateMutability":"view","type":"function"},{"inputs":[],"name":"renounceOwnership","outputs":[],"stateMutability":"nonpayable","type":"function"},{"inputs":[{"internalType":"address","name":"newOwner","type":"address"}],"name":"transferOwnership","outputs":[],"stateMutability":"nonpayable","type":"function"}],"evm":{"bytecode":{"linkReferences":{},"object":"6080346100bb57601f61089d38819003918201601f19168301916001600160401b038311848410176100c0578084926020946040528339810103126100bb57516001600160a01b0390818116908190036100bb5780156100a257600080546001600160a01b03198116831782556040519316907f8be0079c531659141344cd1fd0a4f28419497f9722a3daafe3b4186f6b6457e09080a36107c690816100d78239f35b604051631e4fbdf760e01b815260006004820152602490fd5b600080fd5b634e487b7160e01b600052604160045260246000fdfe604060a0815260048036101561001457600080fd5b600091823560e01c80636e93bb3914610165578063715018a6146101085780638da5cb5b146100dc5763f2fde38b1461004c57600080fd5b346100d85760203660031901126100d8576001600160a01b038235818116939192908490036100d45761007d610671565b83156100be57505082546001600160a01b0319811683178455167f8be0079c531659141344cd1fd0a4f28419497f9722a3daafe3b4186f6b6457e08380a380f35b51631e4fbdf760e01b8152908101849052602490fd5b8480fd5b8280fd5b838234610104578160031936011261010457905490516001600160a01b039091168152602090f35b5080fd5b8334610162578060031936011261016257610121610671565b80546001600160a01b03198116825581906001600160a01b03167f8be0079c531659141344cd1fd0a4f28419497f9722a3daafe3b4186f6b6457e08280a380f35b80fd5b5090346100d857816003193601126100d85780359167ffffffffffffffff6080526080518311610625573660238401121561062557828201359060805182116100d457602491840182810191368311610621578335956101c3610671565b879688966020928381870312610619578781013590608051821161061d5701866043820112156106195787810135956080518711610607578660051b9786519761020f878b018a6106cf565b8852858801916044839a850101938285116105355760448101935b85851061056657505050505050895b85518110156105545761024c8187610759565b518381511461025e5750600101610239565b60019a91939495969798999a948581146000146103fb5750858101519087828051810103126103f7578780610294898501610783565b93015191015187818051810103126103f357876102b19101610783565b90826103e8575b50816103e0575b50156103d6575082975b86516000198101929083116103c557505081146103bb575b6102ed60609186610759565b510152959192955b8151938285019082808701525180915260609384860191858160051b8801019991925b81841061035c575050505090829161033e8561035897989903601f1981018752866106cf565b81519788971515885215159087015285015283019061064c565b0390f35b909192998480600192605f198b82030185528651908a806103a36103916080865186528787015190808988015286019061064c565b8d80870151908683039087015261064c565b9301511515910152950192019a019299919091610318565b90965086906102e1565b634e487b7160e01b8c52601190528afd5b97985082986102c9565b9050386102bf565b6064109150386102b8565b8d80fd5b8c80fd5b91999160021461040c575b506102c9565b85819a929a01518051810187810191888183031261053557888101519060805182116105505701918291608093849103126105355789519361044d8561069d565b828a01516001600160a01b039390848116810361054a5786526104718c8201610783565b948b870195865260609182810151608051811161054257810185603f8201121561054257808f918f0151966104a5886106f1565b926104b2815194856106cf565b8884528883010111610539578f968f91886104d09385019101610629565b858901520151908601520151888180518101031261053557886104f39101610783565b915115159283610528575b505081610520575b5015610516575082975b38610406565b9798508298610510565b905038610506565b51161515915038806104fe565b8e80fd5b50505050508f80fd5b505050508f80fd5b50508f80fd5b8f80fd5b505050909193509591959493946102f5565b84356080518111610602578201906080828503601f190112610602578a519161058e8361069d565b60448101358352606481013560805181116105fb578660446105b29284010161070d565b8b84015260848101359060805182116105fb576105d687604460a49484010161070d565b8d850152013590811515820361054a57828b939260608594015281520194019361022a565b5050508f80fd5b508f80fd5b634e487b7160e01b8c5260418352888cfd5b8a80fd5b8b80fd5b8680fd5b8380fd5b60005b83811061063c5750506000910152565b818101518382015260200161062c565b9060209161066581518092818552858086019101610629565b601f01601f1916010190565b6000546001600160a01b0316330361068557565b60405163118cdaa760e01b8152336004820152602490fd5b6080810190811067ffffffffffffffff8211176106b957604052565b634e487b7160e01b600052604160045260246000fd5b90601f8019910116810190811067ffffffffffffffff8211176106b957604052565b67ffffffffffffffff81116106b957601f01601f191660200190565b81601f8201121561075457803590610724826106f1565b9261073260405194856106cf565b8284526020838301011161075457816000926020809301838601378301015290565b600080fd5b805182101561076d5760209160051b010190565b634e487b7160e01b600052603260045260246000fd5b519081151582036107545756fea264697066735822122089b12d507768abad8ff772c9dd4d356704ec2963f4034cb2467e2ee4b2dc675a64736f6c63430008180033","opcodes":"PUSH1 0x80 CALLVALUE PUSH2 0xBB JUMPI PUSH1 0x1F PUSH2 0x89D CODESIZE DUP2 SWAP1 SUB SWAP2 DUP3 ADD PUSH1 0x1F NOT AND DUP4 ADD SWAP2 PUSH1 0x1 PUSH1 0x1 PUSH1 0x40 SHL SUB DUP4 GT DUP5 DUP5 LT OR PUSH2 0xC0 JUMPI DUP1 DUP5 SWAP3 PUSH1 0x20 SWAP5 PUSH1 0x40 MSTORE DUP4 CODECOPY DUP2 ADD SUB SLT PUSH2 0xBB JUMPI MLOAD PUSH1 0x1 PUSH1 0x1 PUSH1 0xA0 SHL SUB SWAP1 DUP2 DUP2 AND SWAP1 DUP2 SWAP1 SUB PUSH2 0xBB JUMPI DUP1 ISZERO PUSH2 0xA2 JUMPI PUSH1 0x0 DUP1 SLOAD PUSH1 0x1 PUSH1 0x1 PUSH1 0xA0 SHL SUB NOT DUP2 AND DUP4 OR DUP3 SSTORE PUSH1 0x40 MLOAD SWAP4 AND SWAP1 PUSH32 0x8BE0079C531659141344CD1FD0A4F28419497F9722A3DAAFE3B4186F6B6457E0 SWAP1 DUP1 LOG3 PUSH2 0x7C6 SWAP1 DUP2 PUSH2 0xD7 DUP3 CODECOPY RETURN JUMPDEST PUSH1 0x40 MLOAD PUSH4 0x1E4FBDF7 PUSH1 0xE0 SHL DUP2 MSTORE PUSH1 0x0 PUSH1 0x4 DUP3 ADD MSTORE PUSH1 0x24 SWAP1 REVERT JUMPDEST PUSH1 0x0 DUP1 REVERT JUMPDEST PUSH4 0x4E487B71 PUSH1 0xE0 SHL PUSH1 0x0 MSTORE PUSH1 0x41 PUSH1 0x4 MSTORE PUSH1 0x24 PUSH1 0x0 REVERT INVALID PUSH1 0x40 PUSH1 0xA0 DUP2 MSTORE PUSH1 0x4 DUP1 CALLDATASIZE LT ISZERO PUSH2 0x14 JUMPI PUSH1 0x0 DUP1 REVERT JUMPDEST PUSH1 0x0 SWAP2 DUP3 CALLDATALOAD PUSH1 0xE0 SHR DUP1 PUSH4 0x6E93BB39 EQ PUSH2 0x165 JUMPI DUP1 PUSH4 0x715018A6 EQ PUSH2 0x108 JUMPI DUP1 PUSH4 0x8DA5CB5B EQ PUSH2 0xDC JUMPI PUSH4 0xF2FDE38B EQ PUSH2 0x4C JUMPI PUSH1 0x0 DUP1 REVERT JUMPDEST CALLVALUE PUSH2 0xD8 JUMPI PUSH1 0x20 CALLDATASIZE PUSH1 0x3 NOT ADD SLT PUSH2 0xD8 JUMPI PUSH1 0x1 PUSH1 0x1 PUSH1 0xA0 SHL SUB DUP3 CALLDATALOAD DUP2 DUP2 AND SWAP4 SWAP2 SWAP3 SWAP1 DUP5 SWAP1 SUB PUSH2 0xD4 JUMPI PUSH2 0x7D PUSH2 0x671 JUMP JUMPDEST DUP4 ISZERO PUSH2 0xBE JUMPI POP POP DUP3 SLOAD PUSH1 0x1 PUSH1 0x1 PUSH1 0xA0 SHL SUB NOT DUP2 AND DUP4 OR DUP5 SSTORE AND PUSH32 0x8BE0079C531659141344CD1FD0A4F28419497F9722A3DAAFE3B4186F6B6457E0 DUP4 DUP1 LOG3 DUP1 RETURN JUMPDEST MLOAD PUSH4 0x1E4FBDF7 PUSH1 0xE0 SHL DUP2 MSTORE SWAP1 DUP2 ADD DUP5 SWAP1 MSTORE PUSH1 0x24 SWAP1 REVERT JUMPDEST DUP5 DUP1 REVERT JUMPDEST DUP3 DUP1 REVERT JUMPDEST DUP4 DUP3 CALLVALUE PUSH2 0x104 JUMPI DUP2 PUSH1 0x3 NOT CALLDATASIZE ADD SLT PUSH2 0x104 JUMPI SWAP1 SLOAD SWAP1 MLOAD PUSH1 0x1 PUSH1 0x1 PUSH1 0xA0 SHL SUB SWAP1 SWAP2 AND DUP2 MSTORE PUSH1 0x20 SWAP1 RETURN JUMPDEST POP DUP1 REVERT JUMPDEST DUP4 CALLVALUE PUSH2 0x162 JUMPI DUP1 PUSH1 0x3 NOT CALLDATASIZE ADD SLT PUSH2 0x162 JUMPI PUSH2 0x121 PUSH2 0x671 JUMP JUMPDEST DUP1 SLOAD PUSH1 0x1 PUSH1 0x1 PUSH1 0xA0 SHL SUB NOT DUP2 AND DUP3 SSTORE DUP2 SWAP1 PUSH1 0x1 PUSH1 0x1 PUSH1 0xA0 SHL SUB AND PUSH32 0x8BE0079C531659141344CD1FD0A4F28419497F9722A3DAAFE3B4186F6B6457E0 DUP3 DUP1 LOG3 DUP1 RETURN JUMPDEST DUP1 REVERT JUMPDEST POP SWAP1 CALLVALUE PUSH2 0xD8 JUMPI DUP2 PUSH1 0x3 NOT CALLDATASIZE ADD SLT PUSH2 0xD8 JUMPI DUP1 CALLDATALOAD SWAP2 PUSH8 0xFFFFFFFFFFFFFFFF PUSH1 0x80 MSTORE PUSH1 0x80 MLOAD DUP4 GT PUSH2 0x625 JUMPI CALLDATASIZE PUSH1 0x23 DUP5 ADD SLT ISZERO PUSH2 0x625 JUMPI DUP3 DUP3 ADD CALLDATALOAD SWAP1 PUSH1 0x80 MLOAD DUP3 GT PUSH2 0xD4 JUMPI PUSH1 0x24 SWAP2 DUP5 ADD DUP3 DUP2 ADD SWAP2 CALLDATASIZE DUP4 GT PUSH2 0x621 JUMPI DUP4 CALLDATALOAD SWAP6 PUSH2 0x1C3 PUSH2 0x671 JUMP JUMPDEST DUP8 SWAP7 DUP9 SWAP7 PUSH1 0x20 SWAP3 DUP4 DUP2 DUP8 SUB SLT PUSH2 0x619 JUMPI DUP8 DUP2 ADD CALLDATALOAD SWAP1 PUSH1 0x80 MLOAD DUP3 GT PUSH2 0x61D JUMPI ADD DUP7 PUSH1 0x43 DUP3 ADD SLT ISZERO PUSH2 0x619 JUMPI DUP8 DUP2 ADD CALLDATALOAD SWAP6 PUSH1 0x80 MLOAD DUP8 GT PUSH2 0x607 JUMPI DUP7 PUSH1 0x5 SHL SWAP8 DUP7 MLOAD SWAP8 PUSH2 0x20F DUP8 DUP12 ADD DUP11 PUSH2 0x6CF JUMP JUMPDEST DUP9 MSTORE DUP6 DUP9 ADD SWAP2 PUSH1 0x44 DUP4 SWAP11 DUP6 ADD ADD SWAP4 DUP3 DUP6 GT PUSH2 0x535 JUMPI PUSH1 0x44 DUP2 ADD SWAP4 JUMPDEST DUP6 DUP6 LT PUSH2 0x566 JUMPI POP POP POP POP POP POP DUP10 JUMPDEST DUP6 MLOAD DUP2 LT ISZERO PUSH2 0x554 JUMPI PUSH2 0x24C DUP2 DUP8 PUSH2 0x759 JUMP JUMPDEST MLOAD DUP4 DUP2 MLOAD EQ PUSH2 0x25E JUMPI POP PUSH1 0x1 ADD PUSH2 0x239 JUMP JUMPDEST PUSH1 0x1 SWAP11 SWAP2 SWAP4 SWAP5 SWAP6 SWAP7 SWAP8 SWAP9 SWAP10 SWAP11 SWAP5 DUP6 DUP2 EQ PUSH1 0x0 EQ PUSH2 0x3FB JUMPI POP DUP6 DUP2 ADD MLOAD SWAP1 DUP8 DUP3 DUP1 MLOAD DUP2 ADD SUB SLT PUSH2 0x3F7 JUMPI DUP8 DUP1 PUSH2 0x294 DUP10 DUP6 ADD PUSH2 0x783 JUMP JUMPDEST SWAP4 ADD MLOAD SWAP2 ADD MLOAD DUP8 DUP2 DUP1 MLOAD DUP2 ADD SUB SLT PUSH2 0x3F3 JUMPI DUP8 PUSH2 0x2B1 SWAP2 ADD PUSH2 0x783 JUMP JUMPDEST SWAP1 DUP3 PUSH2 0x3E8 JUMPI JUMPDEST POP DUP2 PUSH2 0x3E0 JUMPI JUMPDEST POP ISZERO PUSH2 0x3D6 JUMPI POP DUP3 SWAP8 JUMPDEST DUP7 MLOAD PUSH1 0x0 NOT DUP2 ADD SWAP3 SWAP1 DUP4 GT PUSH2 0x3C5 JUMPI POP POP DUP2 EQ PUSH2 0x3BB JUMPI JUMPDEST PUSH2 0x2ED PUSH1 0x60 SWAP2 DUP7 PUSH2 0x759 JUMP JUMPDEST MLOAD ADD MSTORE SWAP6 SWAP2 SWAP3 SWAP6 JUMPDEST DUP2 MLOAD SWAP4 DUP3 DUP6 ADD SWAP1 DUP3 DUP1 DUP8 ADD MSTORE MLOAD DUP1 SWAP2 MSTORE PUSH1 0x60 SWAP4 DUP5 DUP7 ADD SWAP2 DUP6 DUP2 PUSH1 0x5 SHL DUP9 ADD ADD SWAP10 SWAP2 SWAP3 JUMPDEST DUP2 DUP5 LT PUSH2 0x35C JUMPI POP POP POP POP SWAP1 DUP3 SWAP2 PUSH2 0x33E DUP6 PUSH2 0x358 SWAP8 SWAP9 SWAP10 SUB PUSH1 0x1F NOT DUP2 ADD DUP8 MSTORE DUP7 PUSH2 0x6CF JUMP JUMPDEST DUP2 MLOAD SWAP8 DUP9 SWAP8 ISZERO ISZERO DUP9 MSTORE ISZERO ISZERO SWAP1 DUP8 ADD MSTORE DUP6 ADD MSTORE DUP4 ADD SWAP1 PUSH2 0x64C JUMP JUMPDEST SUB SWAP1 RETURN JUMPDEST SWAP1 SWAP2 SWAP3 SWAP10 DUP5 DUP1 PUSH1 0x1 SWAP3 PUSH1 0x5F NOT DUP12 DUP3 SUB ADD DUP6 MSTORE DUP7 MLOAD SWAP1 DUP11 DUP1 PUSH2 0x3A3 PUSH2 0x391 PUSH1 0x80 DUP7 MLOAD DUP7 MSTORE DUP8 DUP8 ADD MLOAD SWAP1 DUP1 DUP10 DUP9 ADD MSTORE DUP7 ADD SWAP1 PUSH2 0x64C JUMP JUMPDEST DUP14 DUP1 DUP8 ADD MLOAD SWAP1 DUP7 DUP4 SUB SWAP1 DUP8 ADD MSTORE PUSH2 0x64C JUMP JUMPDEST SWAP4 ADD MLOAD ISZERO ISZERO SWAP2 ADD MSTORE SWAP6 ADD SWAP3 ADD SWAP11 ADD SWAP3 SWAP10 SWAP2 SWAP1 SWAP2 PUSH2 0x318 JUMP JUMPDEST SWAP1 SWAP7 POP DUP7 SWAP1 PUSH2 0x2E1 JUMP JUMPDEST PUSH4 0x4E487B71 PUSH1 0xE0 SHL DUP13 MSTORE PUSH1 0x11 SWAP1 MSTORE DUP11 REVERT JUMPDEST SWAP8 SWAP9 POP DUP3 SWAP9 PUSH2 0x2C9 JUMP JUMPDEST SWAP1 POP CODESIZE PUSH2 0x2BF JUMP JUMPDEST PUSH1 0x64 LT SWAP2 POP CODESIZE PUSH2 0x2B8 JUMP JUMPDEST DUP14 DUP1 REVERT JUMPDEST DUP13 DUP1 REVERT JUMPDEST SWAP2 SWAP10 SWAP2 PUSH1 0x2 EQ PUSH2 0x40C JUMPI JUMPDEST POP PUSH2 0x2C9 JUMP JUMPDEST DUP6 DUP2 SWAP11 SWAP3 SWAP11 ADD MLOAD DUP1 MLOAD DUP2 ADD DUP8 DUP2 ADD SWAP2 DUP9 DUP2 DUP4 SUB SLT PUSH2 0x535 JUMPI DUP9 DUP2 ADD MLOAD SWAP1 PUSH1 0x80 MLOAD DUP3 GT PUSH2 0x550 JUMPI ADD SWAP2 DUP3 SWAP2 PUSH1 0x80 SWAP4 DUP5 SWAP2 SUB SLT PUSH2 0x535 JUMPI DUP10 MLOAD SWAP4 PUSH2 0x44D DUP6 PUSH2 0x69D JUMP JUMPDEST DUP3 DUP11 ADD MLOAD PUSH1 0x1 PUSH1 0x1 PUSH1 0xA0 SHL SUB SWAP4 SWAP1 DUP5 DUP2 AND DUP2 SUB PUSH2 0x54A JUMPI DUP7 MSTORE PUSH2 0x471 DUP13 DUP3 ADD PUSH2 0x783 JUMP JUMPDEST SWAP5 DUP12 DUP8 ADD SWAP6 DUP7 MSTORE PUSH1 0x60 SWAP2 DUP3 DUP2 ADD MLOAD PUSH1 0x80 MLOAD DUP2 GT PUSH2 0x542 JUMPI DUP2 ADD DUP6 PUSH1 0x3F DUP3 ADD SLT ISZERO PUSH2 0x542 JUMPI DUP1 DUP16 SWAP2 DUP16 ADD MLOAD SWAP7 PUSH2 0x4A5 DUP9 PUSH2 0x6F1 JUMP JUMPDEST SWAP3 PUSH2 0x4B2 DUP2 MLOAD SWAP5 DUP6 PUSH2 0x6CF JUMP JUMPDEST DUP9 DUP5 MSTORE DUP9 DUP4 ADD ADD GT PUSH2 0x539 JUMPI DUP16 SWAP7 DUP16 SWAP2 DUP9 PUSH2 0x4D0 SWAP4 DUP6 ADD SWAP2 ADD PUSH2 0x629 JUMP JUMPDEST DUP6 DUP10 ADD MSTORE ADD MLOAD SWAP1 DUP7 ADD MSTORE ADD MLOAD DUP9 DUP2 DUP1 MLOAD DUP2 ADD SUB SLT PUSH2 0x535 JUMPI DUP9 PUSH2 0x4F3 SWAP2 ADD PUSH2 0x783 JUMP JUMPDEST SWAP2 MLOAD ISZERO ISZERO SWAP3 DUP4 PUSH2 0x528 JUMPI JUMPDEST POP POP DUP2 PUSH2 0x520 JUMPI JUMPDEST POP ISZERO PUSH2 0x516 JUMPI POP DUP3 SWAP8 JUMPDEST CODESIZE PUSH2 0x406 JUMP JUMPDEST SWAP8 SWAP9 POP DUP3 SWAP9 PUSH2 0x510 JUMP JUMPDEST SWAP1 POP CODESIZE PUSH2 0x506 JUMP JUMPDEST MLOAD AND ISZERO ISZERO SWAP2 POP CODESIZE DUP1 PUSH2 0x4FE JUMP JUMPDEST DUP15 DUP1 REVERT JUMPDEST POP POP POP POP POP DUP16 DUP1 REVERT JUMPDEST POP POP POP POP DUP16 DUP1 REVERT JUMPDEST POP POP DUP16 DUP1 REVERT JUMPDEST DUP16 DUP1 REVERT JUMPDEST POP POP POP SWAP1 SWAP2 SWAP4 POP SWAP6 SWAP2 SWAP6 SWAP5 SWAP4 SWAP5 PUSH2 0x2F5 JUMP JUMPDEST DUP5 CALLDATALOAD PUSH1 0x80 MLOAD DUP2 GT PUSH2 0x602 JUMPI DUP3 ADD SWAP1 PUSH1 0x80 DUP3 DUP6 SUB PUSH1 0x1F NOT ADD SLT PUSH2 0x602 JUMPI DUP11 MLOAD SWAP2 PUSH2 0x58E DUP4 PUSH2 0x69D JUMP JUMPDEST PUSH1 0x44 DUP2 ADD CALLDATALOAD DUP4 MSTORE PUSH1 0x64 DUP2 ADD CALLDATALOAD PUSH1 0x80 MLOAD DUP2 GT PUSH2 0x5FB JUMPI DUP7 PUSH1 0x44 PUSH2 0x5B2 SWAP3 DUP5 ADD ADD PUSH2 0x70D JUMP JUMPDEST DUP12 DUP5 ADD MSTORE PUSH1 0x84 DUP2 ADD CALLDATALOAD SWAP1 PUSH1 0x80 MLOAD DUP3 GT PUSH2 0x5FB JUMPI PUSH2 0x5D6 DUP8 PUSH1 0x44 PUSH1 0xA4 SWAP5 DUP5 ADD ADD PUSH2 0x70D JUMP JUMPDEST DUP14 DUP6 ADD MSTORE ADD CALLDATALOAD SWAP1 DUP2 ISZERO ISZERO DUP3 SUB PUSH2 0x54A JUMPI DUP3 DUP12 SWAP4 SWAP3 PUSH1 0x60 DUP6 SWAP5 ADD MSTORE DUP2 MSTORE ADD SWAP5 ADD SWAP4 PUSH2 0x22A JUMP JUMPDEST POP POP POP DUP16 DUP1 REVERT JUMPDEST POP DUP16 DUP1 REVERT JUMPDEST PUSH4 0x4E487B71 PUSH1 0xE0 SHL DUP13 MSTORE PUSH1 0x41 DUP4 MSTORE DUP9 DUP13 REVERT JUMPDEST DUP11 DUP1 REVERT JUMPDEST DUP12 DUP1 REVERT JUMPDEST DUP7 DUP1 REVERT JUMPDEST DUP4 DUP1 REVERT JUMPDEST PUSH1 0x0 JUMPDEST DUP4 DUP2 LT PUSH2 0x63C JUMPI POP POP PUSH1 0x0 SWAP2 ADD MSTORE JUMP JUMPDEST DUP2 DUP2 ADD MLOAD DUP4 DUP3 ADD MSTORE PUSH1 0x20 ADD PUSH2 0x62C JUMP JUMPDEST SWAP1 PUSH1 0x20 SWAP2 PUSH2 0x665 DUP2 MLOAD DUP1 SWAP3 DUP2 DUP6 MSTORE DUP6 DUP1 DUP7 ADD SWAP2 ADD PUSH2 0x629 JUMP JUMPDEST PUSH1 0x1F ADD PUSH1 0x1F NOT AND ADD ADD SWAP1 JUMP JUMPDEST PUSH1 0x0 SLOAD PUSH1 0x1 PUSH1 0x1 PUSH1 0xA0 SHL SUB AND CALLER SUB PUSH2 0x685 JUMPI JUMP JUMPDEST PUSH1 0x40 MLOAD PUSH4 0x118CDAA7 PUSH1 0xE0 SHL DUP2 MSTORE CALLER PUSH1 0x4 DUP3 ADD MSTORE PUSH1 0x24 SWAP1 REVERT JUMPDEST PUSH1 0x80 DUP2 ADD SWAP1 DUP2 LT PUSH8 0xFFFFFFFFFFFFFFFF DUP3 GT OR PUSH2 0x6B9 JUMPI PUSH1 0x40 MSTORE JUMP JUMPDEST PUSH4 0x4E487B71 PUSH1 0xE0 SHL PUSH1 0x0 MSTORE PUSH1 0x41 PUSH1 0x4 MSTORE PUSH1 0x24 PUSH1 0x0 REVERT JUMPDEST SWAP1 PUSH1 0x1F DUP1 NOT SWAP2 ADD AND DUP2 ADD SWAP1 DUP2 LT PUSH8 0xFFFFFFFFFFFFFFFF DUP3 GT OR PUSH2 0x6B9 JUMPI PUSH1 0x40 MSTORE JUMP JUMPDEST PUSH8 0xFFFFFFFFFFFFFFFF DUP2 GT PUSH2 0x6B9 JUMPI PUSH1 0x1F ADD PUSH1 0x1F NOT AND PUSH1 0x20 ADD SWAP1 JUMP JUMPDEST DUP2 PUSH1 0x1F DUP3 ADD SLT ISZERO PUSH2 0x754 JUMPI DUP1 CALLDATALOAD SWAP1 PUSH2 0x724 DUP3 PUSH2 0x6F1 JUMP JUMPDEST SWAP3 PUSH2 0x732 PUSH1 0x40 MLOAD SWAP5 DUP6 PUSH2 0x6CF JUMP JUMPDEST DUP3 DUP5 MSTORE PUSH1 0x20 DUP4 DUP4 ADD ADD GT PUSH2 0x754 JUMPI DUP2 PUSH1 0x0 SWAP3 PUSH1 0x20 DUP1 SWAP4 ADD DUP4 DUP7 ADD CALLDATACOPY DUP4 ADD ADD MSTORE SWAP1 JUMP JUMPDEST PUSH1 0x0 DUP1 REVERT JUMPDEST DUP1 MLOAD DUP3 LT ISZERO PUSH2 0x76D JUMPI PUSH1 0x20 SWAP2 PUSH1 0x5 SHL ADD ADD SWAP1 JUMP JUMPDEST PUSH4 0x4E487B71 PUSH1 0xE0 SHL PUSH1 0x0 MSTORE PUSH1 0x32 PUSH1 0x4 MSTORE PUSH1 0x24 PUSH1 0x0 REVERT JUMPDEST MLOAD SWAP1 DUP2 ISZERO ISZERO DUP3 SUB PUSH2 0x754 JUMPI JUMP INVALID LOG2 PUSH5 0x6970667358 0x22 SLT KECCAK256 DUP10 0xB1 0x2D POP PUSH24 0x68ABAD8FF772C9DD4D356704EC2963F4034CB2467E2EE4B2 0xDC PUSH8 0x5A64736F6C634300 ADDMOD XOR STOP CALLER "},"methodIdentifiers":{"getOpinion(bytes,uint256)":"6e93bb39","owner()":"8da5cb5b","renounceOwnership()":"715018a6","transferOwnership(address)":"f2fde38b"}}}}}