{"contracts/KrnlRegistered.sol":{"KrnlRegistered":{"abi":[{"inputs":[{"internalType":"address","name":"_tokenAuthorityPublicKey","type":"address"}],"stateMutability":"nonpayable","type":"constructor"},{"inputs":[{"internalType":"address","name":"owner","type":"address"}],"name":"OwnableInvalidOwner","type":"error"},{"inputs":[{"internalType":"address","name":"account","type":"address"}],"name":"OwnableUnauthorizedAccount","type":"error"},{"inputs":[],"name":"UnauthorizedTransaction","type":"error"},{"anonymous":false,"inputs":[{"indexed":true,"internalType":"address","name":"previousOwner","type":"address"},{"indexed":true,"internalType":"address","name":"newOwner","type":"address"}],"name":"OwnershipTransferred","type":"event"},{"inputs":[{"internalType":"bytes","name":"","type":"bytes"}],"name":"executed","outputs":[{"internalType":"bool","name":"","type":"bool"}],"stateMutability":"view","type":"function"},{"inputs":[],"name":"owner","outputs":[{"internalType":"address","name":"","type":"address"}],"stateMutability":"view","type":"function"},{"inputs":[],"name":"renounceOwnership","outputs":[],"stateMutability":"nonpayable","type":"function"},{"inputs":[{"internalType":"address","name":"_tokenAuthorityPublicKey","type":"address"}],"name":"setTokenAuthorityPublicKey","outputs":[],"stateMutability":"nonpayable","type":"function"},{"inputs":[],"name":"tokenAuthorityPublicKey","outputs":[{"internalType":"address","name":"","type":"address"}],"stateMutability":"view","type":"function"},{"inputs":[{"internalType":"address","name":"newOwner","type":"address"}],"name":"transferOwnership","outputs":[],"stateMutability":"nonpayable","type":"function"}],"evm":{"bytecode":{"linkReferences":{},"object":"6080346100c657601f61041238819003918201601f19168301916001600160401b038311848410176100cb578084926020946040528339810103126100c657516001600160a01b0390818116908190036100c65733156100ad5760005460018060a01b0319903382821617600055604051933391167f8be0079c531659141344cd1fd0a4f28419497f9722a3daafe3b4186f6b6457e0600080a3600154161760015561033090816100e28239f35b604051631e4fbdf760e01b815260006004820152602490fd5b600080fd5b634e487b7160e01b600052604160045260246000fdfe608060408181526004908136101561001657600080fd5b600092833560e01c9081634ba1cfe4146102a957508063715018a61461024c5780638da5cb5b14610224578063909dd26314610143578063d213d86b146100f65763f2fde38b1461006657600080fd5b346100f25760203660031901126100f2576001600160a01b038235818116939192908490036100ee576100976102ce565b83156100d857505082546001600160a01b0319811683178455167f8be0079c531659141344cd1fd0a4f28419497f9722a3daafe3b4186f6b6457e08380a380f35b51631e4fbdf760e01b8152908101849052602490fd5b8480fd5b8280fd5b50503461013f57602036600319011261013f57356001600160a01b0381169081900361013f576101246102ce565b6bffffffffffffffffffffffff60a01b600154161760015580f35b5080fd5b5082903461013f57602092836003193601126100f25767ffffffffffffffff81358181116100ee57366023820112156100ee57808301359180831161021157845193601f8401601f19908116603f01168501918211858310176101fe5750845281835236602483830101116100ee5781859260248893018386013783010152838251918051945b8581106101ed5750508160ff939481016002815203019020541690519015158152f35b8181018301518482015282016101ca565b634e487b7160e01b875260419052602486fd5b634e487b7160e01b865260418452602486fd5b83823461013f578160031936011261013f57905490516001600160a01b039091168152602090f35b83346102a657806003193601126102a6576102656102ce565b80546001600160a01b03198116825581906001600160a01b03167f8be0079c531659141344cd1fd0a4f28419497f9722a3daafe3b4186f6b6457e08280a380f35b80fd5b84903461013f578160031936011261013f576001546001600160a01b03168152602090f35b6000546001600160a01b031633036102e257565b60405163118cdaa760e01b8152336004820152602490fdfea2646970667358221220370002567a85af97326a2d4d3ad65dba05b671b97bf3db83971fd626af7ffca364736f6c63430008180033","opcodes":"PUSH1 0x80 CALLVALUE PUSH2 0xC6 JUMPI PUSH1 0x1F PUSH2 0x412 CODESIZE DUP2 SWAP1 SUB SWAP2 DUP3 ADD PUSH1 0x1F NOT AND DUP4 ADD SWAP2 PUSH1 0x1 PUSH1 0x1 PUSH1 0x40 SHL SUB DUP4 GT DUP5 DUP5 LT OR PUSH2 0xCB JUMPI DUP1 DUP5 SWAP3 PUSH1 0x20 SWAP5 PUSH1 0x40 MSTORE DUP4 CODECOPY DUP2 ADD SUB SLT PUSH2 0xC6 JUMPI MLOAD PUSH1 0x1 PUSH1 0x1 PUSH1 0xA0 SHL SUB SWAP1 DUP2 DUP2 AND SWAP1 DUP2 SWAP1 SUB PUSH2 0xC6 JUMPI CALLER ISZERO PUSH2 0xAD JUMPI PUSH1 0x0 SLOAD PUSH1 0x1 DUP1 PUSH1 0xA0 SHL SUB NOT SWAP1 CALLER DUP3 DUP3 AND OR PUSH1 0x0 SSTORE PUSH1 0x40 MLOAD SWAP4 CALLER SWAP2 AND PUSH32 0x8BE0079C531659141344CD1FD0A4F28419497F9722A3DAAFE3B4186F6B6457E0 PUSH1 0x0 DUP1 LOG3 PUSH1 0x1 SLOAD AND OR PUSH1 0x1 SSTORE PUSH2 0x330 SWAP1 DUP2 PUSH2 0xE2 DUP3 CODECOPY RETURN JUMPDEST PUSH1 0x40 MLOAD PUSH4 0x1E4FBDF7 PUSH1 0xE0 SHL DUP2 MSTORE PUSH1 0x0 PUSH1 0x4 DUP3 ADD MSTORE PUSH1 0x24 SWAP1 REVERT JUMPDEST PUSH1 0x0 DUP1 REVERT JUMPDEST PUSH4 0x4E487B71 PUSH1 0xE0 SHL PUSH1 0x0 MSTORE PUSH1 0x41 PUSH1 0x4 MSTORE PUSH1 0x24 PUSH1 0x0 REVERT INVALID PUSH1 0x80 PUSH1 0x40 DUP2 DUP2 MSTORE PUSH1 0x4 SWAP1 DUP2 CALLDATASIZE LT ISZERO PUSH2 0x16 JUMPI PUSH1 0x0 DUP1 REVERT JUMPDEST PUSH1 0x0 SWAP3 DUP4 CALLDATALOAD PUSH1 0xE0 SHR SWAP1 DUP2 PUSH4 0x4BA1CFE4 EQ PUSH2 0x2A9 JUMPI POP DUP1 PUSH4 0x715018A6 EQ PUSH2 0x24C JUMPI DUP1 PUSH4 0x8DA5CB5B EQ PUSH2 0x224 JUMPI DUP1 PUSH4 0x909DD263 EQ PUSH2 0x143 JUMPI DUP1 PUSH4 0xD213D86B EQ PUSH2 0xF6 JUMPI PUSH4 0xF2FDE38B EQ PUSH2 0x66 JUMPI PUSH1 0x0 DUP1 REVERT JUMPDEST CALLVALUE PUSH2 0xF2 JUMPI PUSH1 0x20 CALLDATASIZE PUSH1 0x3 NOT ADD SLT PUSH2 0xF2 JUMPI PUSH1 0x1 PUSH1 0x1 PUSH1 0xA0 SHL SUB DUP3 CALLDATALOAD DUP2 DUP2 AND SWAP4 SWAP2 SWAP3 SWAP1 DUP5 SWAP1 SUB PUSH2 0xEE JUMPI PUSH2 0x97 PUSH2 0x2CE JUMP JUMPDEST DUP4 ISZERO PUSH2 0xD8 JUMPI POP POP DUP3 SLOAD PUSH1 0x1 PUSH1 0x1 PUSH1 0xA0 SHL SUB NOT DUP2 AND DUP4 OR DUP5 SSTORE AND PUSH32 0x8BE0079C531659141344CD1FD0A4F28419497F9722A3DAAFE3B4186F6B6457E0 DUP4 DUP1 LOG3 DUP1 RETURN JUMPDEST MLOAD PUSH4 0x1E4FBDF7 PUSH1 0xE0 SHL DUP2 MSTORE SWAP1 DUP2 ADD DUP5 SWAP1 MSTORE PUSH1 0x24 SWAP1 REVERT JUMPDEST DUP5 DUP1 REVERT JUMPDEST DUP3 DUP1 REVERT JUMPDEST POP POP CALLVALUE PUSH2 0x13F JUMPI PUSH1 0x20 CALLDATASIZE PUSH1 0x3 NOT ADD SLT PUSH2 0x13F JUMPI CALLDATALOAD PUSH1 0x1 PUSH1 0x1 PUSH1 0xA0 SHL SUB DUP2 AND SWAP1 DUP2 SWAP1 SUB PUSH2 0x13F JUMPI PUSH2 0x124 PUSH2 0x2CE JUMP JUMPDEST PUSH12 0xFFFFFFFFFFFFFFFFFFFFFFFF PUSH1 0xA0 SHL PUSH1 0x1 SLOAD AND OR PUSH1 0x1 SSTORE DUP1 RETURN JUMPDEST POP DUP1 REVERT JUMPDEST POP DUP3 SWAP1 CALLVALUE PUSH2 0x13F JUMPI PUSH1 0x20 SWAP3 DUP4 PUSH1 0x3 NOT CALLDATASIZE ADD SLT PUSH2 0xF2 JUMPI PUSH8 0xFFFFFFFFFFFFFFFF DUP2 CALLDATALOAD DUP2 DUP2 GT PUSH2 0xEE JUMPI CALLDATASIZE PUSH1 0x23 DUP3 ADD SLT ISZERO PUSH2 0xEE JUMPI DUP1 DUP4 ADD CALLDATALOAD SWAP2 DUP1 DUP4 GT PUSH2 0x211 JUMPI DUP5 MLOAD SWAP4 PUSH1 0x1F DUP5 ADD PUSH1 0x1F NOT SWAP1 DUP2 AND PUSH1 0x3F ADD AND DUP6 ADD SWAP2 DUP3 GT DUP6 DUP4 LT OR PUSH2 0x1FE JUMPI POP DUP5 MSTORE DUP2 DUP4 MSTORE CALLDATASIZE PUSH1 0x24 DUP4 DUP4 ADD ADD GT PUSH2 0xEE JUMPI DUP2 DUP6 SWAP3 PUSH1 0x24 DUP9 SWAP4 ADD DUP4 DUP7 ADD CALLDATACOPY DUP4 ADD ADD MSTORE DUP4 DUP3 MLOAD SWAP2 DUP1 MLOAD SWAP5 JUMPDEST DUP6 DUP2 LT PUSH2 0x1ED JUMPI POP POP DUP2 PUSH1 0xFF SWAP4 SWAP5 DUP2 ADD PUSH1 0x2 DUP2 MSTORE SUB ADD SWAP1 KECCAK256 SLOAD AND SWAP1 MLOAD SWAP1 ISZERO ISZERO DUP2 MSTORE RETURN JUMPDEST DUP2 DUP2 ADD DUP4 ADD MLOAD DUP5 DUP3 ADD MSTORE DUP3 ADD PUSH2 0x1CA JUMP JUMPDEST PUSH4 0x4E487B71 PUSH1 0xE0 SHL DUP8 MSTORE PUSH1 0x41 SWAP1 MSTORE PUSH1 0x24 DUP7 REVERT JUMPDEST PUSH4 0x4E487B71 PUSH1 0xE0 SHL DUP7 MSTORE PUSH1 0x41 DUP5 MSTORE PUSH1 0x24 DUP7 REVERT JUMPDEST DUP4 DUP3 CALLVALUE PUSH2 0x13F JUMPI DUP2 PUSH1 0x3 NOT CALLDATASIZE ADD SLT PUSH2 0x13F JUMPI SWAP1 SLOAD SWAP1 MLOAD PUSH1 0x1 PUSH1 0x1 PUSH1 0xA0 SHL SUB SWAP1 SWAP2 AND DUP2 MSTORE PUSH1 0x20 SWAP1 RETURN JUMPDEST DUP4 CALLVALUE PUSH2 0x2A6 JUMPI DUP1 PUSH1 0x3 NOT CALLDATASIZE ADD SLT PUSH2 0x2A6 JUMPI PUSH2 0x265 PUSH2 0x2CE JUMP JUMPDEST DUP1 SLOAD PUSH1 0x1 PUSH1 0x1 PUSH1 0xA0 SHL SUB NOT DUP2 AND DUP3 SSTORE DUP2 SWAP1 PUSH1 0x1 PUSH1 0x1 PUSH1 0xA0 SHL SUB AND PUSH32 0x8BE0079C531659141344CD1FD0A4F28419497F9722A3DAAFE3B4186F6B6457E0 DUP3 DUP1 LOG3 DUP1 RETURN JUMPDEST DUP1 REVERT JUMPDEST DUP5 SWAP1 CALLVALUE PUSH2 0x13F JUMPI DUP2 PUSH1 0x3 NOT CALLDATASIZE ADD SLT PUSH2 0x13F JUMPI PUSH1 0x1 SLOAD PUSH1 0x1 PUSH1 0x1 PUSH1 0xA0 SHL SUB AND DUP2 MSTORE PUSH1 0x20 SWAP1 RETURN JUMPDEST PUSH1 0x0 SLOAD PUSH1 0x1 PUSH1 0x1 PUSH1 0xA0 SHL SUB AND CALLER SUB PUSH2 0x2E2 JUMPI JUMP JUMPDEST PUSH1 0x40 MLOAD PUSH4 0x118CDAA7 PUSH1 0xE0 SHL DUP2 MSTORE CALLER PUSH1 0x4 DUP3 ADD MSTORE PUSH1 0x24 SWAP1 REVERT INVALID LOG2 PUSH5 0x6970667358 0x22 SLT KECCAK256 CALLDATACOPY STOP MUL JUMP PUSH27 0x85AF97326A2D4D3AD65DBA05B671B97BF3DB83971FD626AF7FFCA3 PUSH5 0x736F6C6343 STOP ADDMOD XOR STOP CALLER "},"methodIdentifiers":{"executed(bytes)":"909dd263","owner()":"8da5cb5b","renounceOwnership()":"715018a6","setTokenAuthorityPublicKey(address)":"d213d86b","tokenAuthorityPublicKey()":"4ba1cfe4","transferOwnership(address)":"f2fde38b"}}}}}