{
  "_format": "hh-sol-artifact-1",
  "contractName": "KRNLTestToken",
  "sourceName": "contracts/KRNL.sol",
  "abi": [
    {
      "inputs": [],
      "stateMutability": "nonpayable",
      "type": "constructor"
    },
    {
      "inputs": [
        {
          "internalType": "address",
          "name": "spender",
          "type": "address"
        },
        {
          "internalType": "uint256",
          "name": "allowance",
          "type": "uint256"
        },
        {
          "internalType": "uint256",
          "name": "needed",
          "type": "uint256"
        }
      ],
      "name": "ERC20InsufficientAllowance",
      "type": "error"
    },
    {
      "inputs": [
        {
          "internalType": "address",
          "name": "sender",
          "type": "address"
        },
        {
          "internalType": "uint256",
          "name": "balance",
          "type": "uint256"
        },
        {
          "internalType": "uint256",
          "name": "needed",
          "type": "uint256"
        }
      ],
      "name": "ERC20InsufficientBalance",
      "type": "error"
    },
    {
      "inputs": [
        {
          "internalType": "address",
          "name": "approver",
          "type": "address"
        }
      ],
      "name": "ERC20InvalidApprover",
      "type": "error"
    },
    {
      "inputs": [
        {
          "internalType": "address",
          "name": "receiver",
          "type": "address"
        }
      ],
      "name": "ERC20InvalidReceiver",
      "type": "error"
    },
    {
      "inputs": [
        {
          "internalType": "address",
          "name": "sender",
          "type": "address"
        }
      ],
      "name": "ERC20InvalidSender",
      "type": "error"
    },
    {
      "inputs": [
        {
          "internalType": "address",
          "name": "spender",
          "type": "address"
        }
      ],
      "name": "ERC20InvalidSpender",
      "type": "error"
    },
    {
      "inputs": [
        {
          "internalType": "address",
          "name": "owner",
          "type": "address"
        }
      ],
      "name": "OwnableInvalidOwner",
      "type": "error"
    },
    {
      "inputs": [
        {
          "internalType": "address",
          "name": "account",
          "type": "address"
        }
      ],
      "name": "OwnableUnauthorizedAccount",
      "type": "error"
    },
    {
      "anonymous": false,
      "inputs": [
        {
          "indexed": true,
          "internalType": "address",
          "name": "owner",
          "type": "address"
        },
        {
          "indexed": true,
          "internalType": "address",
          "name": "spender",
          "type": "address"
        },
        {
          "indexed": false,
          "internalType": "uint256",
          "name": "value",
          "type": "uint256"
        }
      ],
      "name": "Approval",
      "type": "event"
    },
    {
      "anonymous": false,
      "inputs": [],
      "name": "DistributionStarted",
      "type": "event"
    },
    {
      "anonymous": false,
      "inputs": [],
      "name": "DistributionStopped",
      "type": "event"
    },
    {
      "anonymous": false,
      "inputs": [
        {
          "indexed": true,
          "internalType": "address",
          "name": "previousOwner",
          "type": "address"
        },
        {
          "indexed": true,
          "internalType": "address",
          "name": "newOwner",
          "type": "address"
        }
      ],
      "name": "OwnershipTransferred",
      "type": "event"
    },
    {
      "anonymous": false,
      "inputs": [
        {
          "indexed": true,
          "internalType": "address",
          "name": "_address",
          "type": "address"
        },
        {
          "indexed": false,
          "internalType": "uint256",
          "name": "amount",
          "type": "uint256"
        }
      ],
      "name": "TokensClaimed",
      "type": "event"
    },
    {
      "anonymous": false,
      "inputs": [
        {
          "indexed": true,
          "internalType": "address",
          "name": "from",
          "type": "address"
        },
        {
          "indexed": true,
          "internalType": "address",
          "name": "to",
          "type": "address"
        },
        {
          "indexed": false,
          "internalType": "uint256",
          "name": "value",
          "type": "uint256"
        }
      ],
      "name": "Transfer",
      "type": "event"
    },
    {
      "anonymous": false,
      "inputs": [
        {
          "indexed": true,
          "internalType": "address",
          "name": "_address",
          "type": "address"
        }
      ],
      "name": "Whitelisted",
      "type": "event"
    },
    {
      "inputs": [
        {
          "internalType": "address",
          "name": "_address",
          "type": "address"
        }
      ],
      "name": "addToWhitelist",
      "outputs": [],
      "stateMutability": "nonpayable",
      "type": "function"
    },
    {
      "inputs": [
        {
          "internalType": "address[]",
          "name": "_addresses",
          "type": "address[]"
        }
      ],
      "name": "addToWhitelistBatch",
      "outputs": [],
      "stateMutability": "nonpayable",
      "type": "function"
    },
    {
      "inputs": [
        {
          "internalType": "address",
          "name": "owner",
          "type": "address"
        },
        {
          "internalType": "address",
          "name": "spender",
          "type": "address"
        }
      ],
      "name": "allowance",
      "outputs": [
        {
          "internalType": "uint256",
          "name": "",
          "type": "uint256"
        }
      ],
      "stateMutability": "view",
      "type": "function"
    },
    {
      "inputs": [
        {
          "internalType": "address",
          "name": "spender",
          "type": "address"
        },
        {
          "internalType": "uint256",
          "name": "value",
          "type": "uint256"
        }
      ],
      "name": "approve",
      "outputs": [
        {
          "internalType": "bool",
          "name": "",
          "type": "bool"
        }
      ],
      "stateMutability": "nonpayable",
      "type": "function"
    },
    {
      "inputs": [
        {
          "internalType": "address",
          "name": "account",
          "type": "address"
        }
      ],
      "name": "balanceOf",
      "outputs": [
        {
          "internalType": "uint256",
          "name": "",
          "type": "uint256"
        }
      ],
      "stateMutability": "view",
      "type": "function"
    },
    {
      "inputs": [],
      "name": "claimTokens",
      "outputs": [],
      "stateMutability": "nonpayable",
      "type": "function"
    },
    {
      "inputs": [
        {
          "internalType": "address",
          "name": "",
          "type": "address"
        }
      ],
      "name": "claimed",
      "outputs": [
        {
          "internalType": "bool",
          "name": "",
          "type": "bool"
        }
      ],
      "stateMutability": "view",
      "type": "function"
    },
    {
      "inputs": [],
      "name": "decimals",
      "outputs": [
        {
          "internalType": "uint8",
          "name": "",
          "type": "uint8"
        }
      ],
      "stateMutability": "view",
      "type": "function"
    },
    {
      "inputs": [],
      "name": "distributionStarted_",
      "outputs": [
        {
          "internalType": "bool",
          "name": "",
          "type": "bool"
        }
      ],
      "stateMutability": "view",
      "type": "function"
    },
    {
      "inputs": [],
      "name": "name",
      "outputs": [
        {
          "internalType": "string",
          "name": "",
          "type": "string"
        }
      ],
      "stateMutability": "view",
      "type": "function"
    },
    {
      "inputs": [],
      "name": "owner",
      "outputs": [
        {
          "internalType": "address",
          "name": "",
          "type": "address"
        }
      ],
      "stateMutability": "view",
      "type": "function"
    },
    {
      "inputs": [],
      "name": "renounceOwnership",
      "outputs": [],
      "stateMutability": "nonpayable",
      "type": "function"
    },
    {
      "inputs": [],
      "name": "startDistribution",
      "outputs": [],
      "stateMutability": "nonpayable",
      "type": "function"
    },
    {
      "inputs": [],
      "name": "stopDistribution",
      "outputs": [],
      "stateMutability": "nonpayable",
      "type": "function"
    },
    {
      "inputs": [],
      "name": "symbol",
      "outputs": [
        {
          "internalType": "string",
          "name": "",
          "type": "string"
        }
      ],
      "stateMutability": "view",
      "type": "function"
    },
    {
      "inputs": [],
      "name": "totalSupply",
      "outputs": [
        {
          "internalType": "uint256",
          "name": "",
          "type": "uint256"
        }
      ],
      "stateMutability": "view",
      "type": "function"
    },
    {
      "inputs": [
        {
          "internalType": "address",
          "name": "to",
          "type": "address"
        },
        {
          "internalType": "uint256",
          "name": "value",
          "type": "uint256"
        }
      ],
      "name": "transfer",
      "outputs": [
        {
          "internalType": "bool",
          "name": "",
          "type": "bool"
        }
      ],
      "stateMutability": "nonpayable",
      "type": "function"
    },
    {
      "inputs": [
        {
          "internalType": "address",
          "name": "from",
          "type": "address"
        },
        {
          "internalType": "address",
          "name": "to",
          "type": "address"
        },
        {
          "internalType": "uint256",
          "name": "value",
          "type": "uint256"
        }
      ],
      "name": "transferFrom",
      "outputs": [
        {
          "internalType": "bool",
          "name": "",
          "type": "bool"
        }
      ],
      "stateMutability": "nonpayable",
      "type": "function"
    },
    {
      "inputs": [
        {
          "internalType": "address",
          "name": "newOwner",
          "type": "address"
        }
      ],
      "name": "transferOwnership",
      "outputs": [],
      "stateMutability": "nonpayable",
      "type": "function"
    },
    {
      "inputs": [
        {
          "internalType": "address",
          "name": "",
          "type": "address"
        }
      ],
      "name": "whitelist_",
      "outputs": [
        {
          "internalType": "bool",
          "name": "",
          "type": "bool"
        }
      ],
      "stateMutability": "view",
      "type": "function"
    }
  ],
  "bytecode": "0x60803462000403576040906001600160401b039080830182811182821017620003ed578352600f81526020906e25a92726102a32b9ba102a37b5b2b760891b8282015283519284840184811082821117620003ed5785526004938481526312d4939360e21b848201528251828111620003d8576003918254916001958684811c94168015620003cd575b88851014620003b8578190601f9485811162000362575b508890858311600114620002fb57600092620002ef575b505060001982861b1c191690861b1783555b8051938411620002da5786548581811c91168015620002cf575b87821014620002ba578281116200026f575b50859184116001146200020457938394918492600095620001f8575b50501b92600019911b1c19161782555b3315620001e15760058054336001600160a01b0319821681179092556001600160a01b03167f8be0079c531659141344cd1fd0a4f28419497f9722a3daafe3b4186f6b6457e0600080a3600254620f424092838201809211620001cc57506000917fddf252ad1be2c89b69c2b068fc378daa952ba7f163c4a11628f55a4df523b3ef9160025533835282815284832084815401905584519384523393a351610d2e9081620004098239f35b601190634e487b7160e01b6000525260246000fd5b5060006024925191631e4fbdf760e01b8352820152fd5b01519350388062000111565b9190601f198416928760005284876000209460005b89898383106200025757505050106200023c575b50505050811b01825562000121565b01519060f884600019921b161c19169055388080806200022d565b86860151895590970196948501948893500162000219565b87600052866000208380870160051c820192898810620002b0575b0160051c019086905b828110620002a3575050620000f5565b6000815501869062000293565b925081926200028a565b602288634e487b7160e01b6000525260246000fd5b90607f1690620000e3565b604187634e487b7160e01b6000525260246000fd5b015190503880620000b7565b90889350601f19831691876000528a6000209260005b8c8282106200034b575050841162000332575b505050811b018355620000c9565b015160001983881b60f8161c1916905538808062000324565b8385015186558c9790950194938401930162000311565b90915085600052886000208580850160051c8201928b8610620003ae575b918a91869594930160051c01915b8281106200039e575050620000a0565b600081558594508a91016200038e565b9250819262000380565b602289634e487b7160e01b6000525260246000fd5b93607f169362000089565b604186634e487b7160e01b6000525260246000fd5b634e487b7160e01b600052604160045260246000fd5b600080fdfe6080604081815260048036101561001557600080fd5b600092833560e01c90816306fdde0314610a4357508063095ea7b31461099a57806318160ddd1461097b57806323b872dd14610888578063313ce5671461086d57806348c54b9d1461066f578063547cf1b61461064b57806370a0823114610614578063715018a6146105b75780638da5cb5b1461058e57806395d89b411461046c578063a61771391461038e578063a9059cbb1461035d578063c884ef831461031f578063d83623dd146102d2578063dd62ed3e14610289578063dffbbef51461023c578063e43252d7146101d3578063e56a7c5d146101915763f2fde38b146100ff57600080fd5b3461018d57602036600319011261018d57610118610b83565b90610121610ccc565b6001600160a01b03918216928315610177575050600554826bffffffffffffffffffffffff60a01b821617600555167f8be0079c531659141344cd1fd0a4f28419497f9722a3daafe3b4186f6b6457e08380a380f35b51631e4fbdf760e01b8152908101849052602490fd5b8280fd5b5050346101cf5760203660031901126101cf5760209160ff9082906001600160a01b036101bc610b83565b1681526006855220541690519015158152f35b5080fd5b5050346101cf5760203660031901126101cf576101ee610b83565b6101f6610ccc565b6001600160a01b03168083526006602052908220805460ff191660011790557faab7954e9d246b167ef88aeddad35209ca2489d95a8aeb59e288d9b19fae5a548280a280f35b8334610286578060031936011261028657610255610ccc565b60ff19600854166008557fbe5adf618cbdb160d8186c8f607a42f19897ec0d80fdbc9565484b3f09fba72f8180a180f35b80fd5b5050346101cf57806003193601126101cf57806020926102a7610b83565b6102af610b9e565b6001600160a01b0391821683526001865283832091168252845220549051908152f35b83346102865780600319360112610286576102eb610ccc565b600160ff1960085416176008557fcaec521e84e0f554a179e69c042f43833410c17af29a4385f244c61e24d3759a8180a180f35b5050346101cf5760203660031901126101cf5760209160ff9082906001600160a01b0361034a610b83565b1681526007855220541690519015158152f35b5050346101cf57806003193601126101cf5760209061038761037d610b83565b6024359033610bee565b5160018152f35b503461018d57602090602060031936011261046857803567ffffffffffffffff91828211610464573660238301121561046457810135918211610460576024810190602436918460051b010111610460576103e7610ccc565b845b8281106103f4578580f35b6001906001600160a01b038061041361040e848888610bb4565b610bda565b16885260068652868820805460ff19168417905561043561040e838787610bb4565b167faab7954e9d246b167ef88aeddad35209ca2489d95a8aeb59e288d9b19fae5a548880a2016103e9565b8480fd5b8580fd5b8380fd5b509190346101cf57816003193601126101cf5780519082845460018160011c9060018316928315610584575b6020938484108114610571578388529081156105555750600114610500575b505050829003601f01601f191682019267ffffffffffffffff8411838510176104ed57508291826104e9925282610b3a565b0390f35b634e487b7160e01b815260418552602490fd5b8787529192508591837f8a35acfbc15ff81a39ae7d344fd709f28e8600b4aa8c65c6b64bfe7fe36bd19b5b83851061054157505050508301013880806104b7565b80548886018301529301928490820161052b565b60ff1916878501525050151560051b84010190503880806104b7565b634e487b7160e01b895260228a52602489fd5b91607f1691610498565b5050346101cf57816003193601126101cf5760055490516001600160a01b039091168152602090f35b83346102865780600319360112610286576105d0610ccc565b600580546001600160a01b0319811690915581906001600160a01b03167f8be0079c531659141344cd1fd0a4f28419497f9722a3daafe3b4186f6b6457e08280a380f35b5050346101cf5760203660031901126101cf5760209181906001600160a01b0361063c610b83565b16815280845220549051908152f35b5050346101cf57816003193601126101cf5760209060ff6008541690519015158152f35b508290346101cf57816003193601126101cf5760ff600854161561082a5733825260206006815260ff8484205416156107f5573383526007815260ff84842054166107ba5733835260078152838320805460ff191660011790556005546001600160a01b03169384156107a457331561078e5784845283825280842054946103e89384871061076d57508495817f896e034966eaaf1adc54acc0f257056febbd300c9e47182cf761982cf1f5e4309596528684526103e71901828720553386528186208581540190558151908582527fddf252ad1be2c89b69c2b068fc378daa952ba7f163c4a11628f55a4df523b3ef843393a3519283523392a280f35b848760649385519363391434e360e21b855284015260248301526044820152fd5b6024939150519163ec442f0560e01b8352820152fd5b60249391505191634b637e8f60e11b8352820152fd5b835162461bcd60e51b8152918201526016602482015275151bdad95b9cc8185b1c9958591e4818db185a5b595960521b604482015260649150fd5b835162461bcd60e51b815291820152601060248201526f139bdd081bdb881dda1a5d195b1a5cdd60821b604482015260649150fd5b606490602084519162461bcd60e51b8352820152601860248201527f446973747269627574696f6e206e6f74207374617274656400000000000000006044820152fd5b5050346101cf57816003193601126101cf5751908152602090f35b508234610286576060366003190112610286576108a3610b83565b6108ab610b9e565b916044359360018060a01b0383168083526001602052868320338452602052868320549160001983036108e7575b602088610387898989610bee565b86831061094f57811561093857331561092157508252600160209081528683203384528152918690209085900390558290610387876108d9565b8751634a1406b160e11b8152908101849052602490fd5b875163e602df0560e01b8152908101849052602490fd5b8751637dc7a0d960e11b8152339181019182526020820193909352604081018790528291506060010390fd5b5050346101cf57816003193601126101cf576020906002549051908152f35b503461018d578160031936011261018d576109b3610b83565b602435903315610a2c576001600160a01b0316918215610a1557508083602095338152600187528181208582528752205582519081527f8c5be1e5ebec7d5bd14f71427d1e84f3dd0314c0f7b2291e5b200ac8c7c3b925843392a35160018152f35b8351634a1406b160e11b8152908101859052602490fd5b835163e602df0560e01b8152808401869052602490fd5b849150833461018d578260031936011261018d578260035460018160011c9060018316928315610b30575b602093848410811461057157838852908115610b145750600114610abe57505050829003601f01601f191682019267ffffffffffffffff8411838510176104ed57508291826104e9925282610b3a565b600387529192508591837fc2575a0e9e593c00f959f8c92f12db2869c3395a3b0502d05e2516446f71f85b5b838510610b0057505050508301018580806104b7565b805488860183015293019284908201610aea565b60ff1916878501525050151560051b84010190508580806104b7565b91607f1691610a6e565b6020808252825181830181905290939260005b828110610b6f57505060409293506000838284010152601f8019910116010190565b818101860151848201604001528501610b4d565b600435906001600160a01b0382168203610b9957565b600080fd5b602435906001600160a01b0382168203610b9957565b9190811015610bc45760051b0190565b634e487b7160e01b600052603260045260246000fd5b356001600160a01b0381168103610b995790565b916001600160a01b03808416928315610cb35716928315610c9a5760009083825281602052604082205490838210610c68575091604082827fddf252ad1be2c89b69c2b068fc378daa952ba7f163c4a11628f55a4df523b3ef958760209652828652038282205586815220818154019055604051908152a3565b60405163391434e360e21b81526001600160a01b03919091166004820152602481019190915260448101839052606490fd5b60405163ec442f0560e01b815260006004820152602490fd5b604051634b637e8f60e11b815260006004820152602490fd5b6005546001600160a01b03163303610ce057565b60405163118cdaa760e01b8152336004820152602490fdfea26469706673582212204239f0531e58c911be93eb447e4835bc3ce9d19ee0b7ae969e84cbee201d1d8464736f6c63430008180033",
  "linkReferences": {},
  "deployedLinkReferences": {}
}